:090B6E0031323320202020200048
:10095E00022B000001080008190000000000000032
:10096E000001290008210000000000000000080915
:10097E000000000000000000012A00081100000025
:05098E00000000000064
:100AE500120A93120B23120B10D2AF7BFF7A0B79EC
:060AF5006E1208D180F52D
:03001B00020B4491
:0F0B4400C0E00529052CE52C7002052BD0E0320E
:1008D1008B2D8A2E892F78117C007D0012043CEF2C
:1008E1006012753300753400753509AB2DAA2EA938
:1008F1002F12054278117C007D00AB2DAA2EA92F65
:10090100120525E52920E012052A532A077B007AE2
:0B091100007909AD2A1209F680E922E6
:040ACB00D2A07F0531
:100ACF00000000000000000000000000000000AE69
:060ADF00071FEE70EB2280
:0F0B5300D2A1120ACBC2A17F05120ACFC2A022E3
:0C0B6200C2A1120ACBD2A17F05020ACF6B
:020A2600AD071A
:100A2800E4FCC2A07F05120ACFED30E704D2A18012
:100A380002C2A17F05120ACFD2A0ED25E0FD7F05F5
:090A4800120ACF0CBC08DBC2A0AD
:010A51002282
:100A7600E4FC120ACBED25E0FD30A103430501C2DB
:0C0A8600A07F05120ACF0CBC08E8AF05E9
:010A92002241
:100A5200AB05120B537FA0120A26120A64AF0312CF
:020A62000A2662
:100A6400120ACBA2A1E433FDC2A07F05120ACFAFC4
:010A7400057C
:010A7500225E
:10000300C2A0EF24FF92A17F05120ACF120ACBC22E
:08001300A0D2A17F05020ACF73
:1009C600E4FD120B537F90120A26120A647F43122B
:1009D6000A26120A64120B537F91120A26120A641F
:0F09E600120A76AD077F01120003120B62AF05F4
:0109F50022DF
:100AFB00AB07120B537F90120A26120A647F411226
:050B0B000A59020B6213
:10091C008B388A39893A120A52120B537FA1120A68
:10092C0026120A64AF3C153CEF6024120A76AB38F1
:10093C00053AE53AAA397002053914F9EF12022981
:10094C00E53C6004E4FF80027F0112000380D502C5
:02095C000B622C
:100994008B3D8A3E893F120A52AF411541EF601FD9
:1009A400AB3D053FE53FAA3E7002053E14F9120136
:1009B400E3FF120A26120A647FC8120ACF80DA0201
:0209C4000B62C4
:100A93007580FFE5A0541F4480F5A053A01FE4F523
:0D0AA30080E5A0541F44A0F5A053A01F2221
:100B3400EFF4F580E5A0541F4480F5A053A01F22D4
:100AB00020B3037F042220B2037F052220B1037FED
:0B0AC000062220B0037F07227F0022E7
:1006EC00E4FEF542C2C4D2C2D2B5D2B4E5B0540FC6
:1006FC00D2C4C2C2D2B5D2B4C4F8540FC868FFEE8B
:10070C00C454F048FEE5B0540FFDEF4DD2C4D2C234
:10071C00C2B5D2B4C4F8540FC868FFEEC454F04844
:10072C00FEE5B0540FFDEF4DD2C4D2C2D2B5C2B467
:10073C00C4F8540FC868FFEEC454F048FEE5B0543A
:10074C000FFDEF4DF4FFEEF4FEEF8EF01202910769
:10075C00EA000107E5000207E0000407DB000807D8
:10076C00D6001007D1002007CC004007C700800737
:10077C00C2010007BD020007B8040007B308000758
:10078C00AE100007A9200007A44000079F800000BE
:10079C000007EF754204804E75420580497542068C
:1007AC008044754207803F754208803A7542098043
:1007BC003575420A803075420B802B75420C8026B1
:1007CC0075420D802175420E801C75420F80177585
:1007DC0042108012754211800D75421280087542CC
:0807EC00138003E4F542AF4263
:0107F40022E2
:060542008B308A31893282
:10054800E4F536F537E536D3940740030206EBABFE
:1005580030AA31A9328537827583001201FC120254
:100568006B06AB0006AB2005A33005B43105C532D8
:1005780005D63305E73405F835060936061A370671
:100588002B38063B39064B41066B43068B45069BC9
:1005980046065B62067B64000006BCAB33AA34A93E
:1005A8003585368275830074C00206B9AB33AA3428
:1005B800A93585368275830074F90206B9AB33AA6A
:1005C80034A93585368275830074A40206B9AB3325
:1005D800AA34A93585368275830074B00206B9AB92
:1005E80033AA34A93585368275830074990206B911
:1005F800AB33AA34A9358536827583007492020616
:10060800B9AB33AA34A93585368275830074820262
:1006180006B9AB33AA34A93585368275830074F8D8
:100628000206B9AB33AA34A93585368275830074BE
:1006380080807EAB33AA34A93585368275830074F1
:1006480090806EAB33AA34A93585368275830074E1
:1006580088805EAB33AA34A93585368275830074E9
:1006680083804EAB33AA34A93585368275830074EE
:10067800C6803EAB33AA34A93585368275830074AB
:10068800A1802EAB33AA34A93585368275830074D0
:1006980086801EAB33AA34A93585368275830074EB
:1006A80081800EAB33AA34A93585368275830074F0
:1006B800FF12023B853782758300A3AB30AA31A9AC
:1006C800321201FCB42E15AB33E5352536F9E43585
:1006D80034FA1201E3547F1202290537053605372B
:0306E80002054DBB
:0106EB0022EC
:1009F6008D827583001201FCF580E5A0541F44E04A
:100A0600F5A053A01FAF05A8077401088002C333E1
:100A1600D8FCF580E5A0541F44C0F5A053A01F22C2
:100B1000438E4053890F758B20758DD1C28FD28E35
:030B2000D2AB2233
:100B2300538E7F5389F0758AF4758CFFC28DC28C06
:010B3300229F
:100881007F0AC290758AF4758CFFD28CAE071FEE79
:10089100600E208D07A290B3929080F6C28D80ECFD
:1008A100C28CE4F58AF58CD28C309103308DFAC27A
:1008B1008C308D037FFF22AF8CEFAD8AFCEC1201EF
:0F08C100297B967A43798B783C12001E120162D4
:0108D0002205
:10001E00EC4D6011E8497017ED33EC3304600DE4DC
:10002E00FCFFFEFD22E933E8330470F80201CE1224
:10003E00019958046009E4CC248150062850090225
:10004E0001D82840030201D5C0E0EB4A7044B980C4
:10005E0006D0E0FB0201C4EF4E701CBD8008EBFF22
:10006E00EAFEE9FD80EBE98DF0A4FEE5F002010762
:10007E00E9CDF9EAFEEBFFEF89F0A4FCE5F0CE89BD
:10008E00F0A42EFFE435F0CD89F0A42DFEE435F07A
:10009E008067EF4E7005BD80D780C3EF8BF0A4ACA8
:1000AE00F0EE8BF0A42CFCE435F0F8EF8AF0A42CE3
:1000BE00E5F038FCE433CB8DF0A42CFCE5F03BF8F6
:1000CE00EE8AF0A42CFCE5F038F8E433CF89F0A4E6
:1000DE002CFCE5F038CF3400CE89F0A42FFFE5F0EC
:1000EE003EFEE433C98DF0A42EFEE5F039CD8AF044
:1000FE00A42FFFE5F03EFEE43DFD33D0E0FB5007BC
:10010E000BBB000F0201D8EC2CFCEF33FFEE33FEDD
:06011E00ED33FD0201B00B
:1001240075F020800E75F010800575F0087D007E56
:10013400007F003392D530D50312025DEC334010BA
:10014400EF33FFEE33FEED33FDEC33FCD5F0ED225F
:0E015400E5F0247EA2D513CC92E7CDCEFF229B
:10016200EDD2E7CD33EC3392D524814006E4FFFE95
:10017200FDFC22FCE4CFCECDCC24E0501174FF80F4
:10018200EDC3CC13CCCD13CDCE13CECF13CF047091
:07019200F030D5DE02025D32
:10019900E9D2E7C933E833F892D5EDD2E7CD33ECAC
:0701A90033FC5002B2D52225
:1001B000EC30E7100FBF000C0EBE00080DBD0004B0
:1001C0000BEB6014A2D5EB13FCED92E7FD2274FF5C
:1001D000FCFDFEFF22E480F8A2D574FF13FC7D80B5
:0301E000E480EFC9
:030000000207F5FF
:0C07F500787FE4F6D8FD75814202083CD4
:1001E300BB010689828A83E0225002E722BBFE021A
:0901F300E32289828A83E493224D
:1001FC00BB010CE58229F582E5833AF583E02250B8
:10020C0006E92582F8E622BBFE06E92582F8E22201
:0D021C00E58229F582E5833AF583E493221B
:10022900BB010689828A83F0225002F722BBFE01B4
:02023900F322AE
:10023B00F8BB010DE58229F582E5833AF583E8F0F9
:10024B00225006E92582C8F622BBFE05E92582C8A5
:02025B00F2228D
:0E025D00C3E49FFFE49EFEE49DFDE49CFC22B2
:10026B00D083D082F8E4937012740193700DA3A322
:10027B0093F8740193F5828883E473740293686036
:06028B00EFA3A3A380DF36
:10029100D083D082F8E4937012740193700DA3A3FC
:1002A10093F8740193F5828883E473740293B5F033
:0D02B100067403936860E9A3A3A3A380D89B
:1002BE00E3F5F009E208B5F06D606B80F3E3F5F05D
:1002CE0009E608B5F060605E80F387F009E608B5D0
:1002DE00F054605280F487F009E208B5F0486046A9
:1002EE0080F488828C8387F009E0A3B5F0386036FD
:1002FE0080F488828C8387F009E493A3B5F027609D
:10030E002580F388828C83E3F5F009E0A3B5F0161F
:10031E00601480F388828C83E3F5F009E493A3B52F
:10032E00F004600280F20203E9808580E7808E800F
:10033E00D2803C8015806C807E809B80B5808B80C7
:10034E00A1804F8070803A0203F589828A83ECFA8D
:10035E00E493F5F0A3C8C582C8CCC583CCE493A3BF
:10036E00C8C582C8CCC583CCB5F070606E80E189FB
:10037E00828A83E493F5F0A3E208B5F05E605C80B8
:10038E00F289828A83E0F5F0A3E608B5F04D604B62
:10039E0080F389828A83E0F5F0A3E208B5F03C6031
:1003AE003A80F389828A83E493F5F0A3E608B5F0E8
:1003BE002A602880F2805389828A83ECFAE493F5CE
:1003CE00F0A3C8C582C8CCC583CCE0A3C8C582C87B
:1003DE00CCC583CCB5F004600280E27FFFB5F0029D
:1003EE000F2240027F012289828A83ECFAE0F5F027
:1003FE00A3C8C582C8CCC583CCE0A3C8C582C8CC6F
:10040E00C583CCB5F0D560D380E389828A83ECFABC
:10041E00E0F5F0A3C8C582C8CCC583CCE493A3C8CD
:10042E00C582C8CCC583CCB5F0B160AF80E288F090
:10043E00ED2402B4040050A3F582EB2402B40400B0
:0B044E0050992323458223900337734D
:10045900E709F60870FA8046E709F20870FA803E63
:1004690088828C83E709F0A370FA807EE309F60895
:1004790070FA8076E309F20870FA806E88828C83BC
:10048900E309F0A370FA806289828A83E0A3F608FF
:1004990070FA805689828A83E0A3F20870FA804A4A
:1004A90080D280FA80C680D4806580F28031801045
:1004B90080A680EA809A80A880DA80E280CA8031AA
:1004C90089828A83ECFAE493A3C8C582C8CCC58320
:1004D900CCF0A3C8C582C8CCC583CC70E9800D898E
:1004E900828A83E493A3F60870F9ECFAA9F0EDFB8C
:1004F9002289828A83ECFAE0A3C8C582C8CCC58365
:10050900CCF0A3C8C582C8CCC583CC70EA80DD898C
:10051900828A83E493A3F20870F980CE88F0ED24EF
:1005290002B4040050C4F582EB2402B4040050BAAA
:0905390023234582239004A973D9
:10080100020AE5E493A3F8E493A34003F68001F21E
:1008110008DFF48029E493A3F85407240CC8C333F8
:10082100C4540F4420C8834004F456800146F6DFC7
:10083100E4800B010204081020408090095EE47EF0
:10084100019360BCA3FF543F30E509541FFEE493BC
:10085100A360010ECF54C025E060A840B8E493A383
:10086100FAE493A3F8E493A3C8C582C8CAC583CAAE
:10087100F0A3C8C582C8CAC583CADFE9DEE780BE66
:010993000063
:00000001FF
