:1014130075312020202530322E316600753220258B
:101423003032642D2530326400753320202020258E
:0614330030322E3066008D
:10120700013E00013C000C3F000000000000000010
:10121700000000000C30000000000000000000008B
:101227000000014B00013D00042A00000000022ECF
:101237000000044C41B8000003270C3B3201570063
:10124700022200000154000155000152000126004E
:0E125700015302025000000156000224000064
:1011A6001214761215347B007A007927121266D251
:1011B600AF120E128F3EE53EB40C15E53C7011E5FC
:1011C600562401FFE433FE7C007D031205D98D56BB
:1011D600E53EB40D0BE53C7007E554045401F554A7
:1011E600853E3CE55614600C14600E2402700D1208
:1011F60012FD800812101B8003120F1B1214AF8001
:01120600B037
:1012FD00121439755DFF755E14755F13E4FBFA7991
:10130D00807841AF2DAE2CAD2BAC2A120119AB4F0D
:10131D00AA4EA94DA84C1200258F638E628D618C4B
:0D132D00607B007A00793F1206FB020CE0A5
:10101B00E4F558755901120003120E128F58E5585A
:10102B00701FE559701B755DFF755E14755F1FF5BD
:10103B0060852761F562852863FB7A00793F12068C
:10104B00FBE558B41123E559B4111E755DFF755EB0
:10105B0014755F1F756000852861756200852963B3
:10106B007B007A00793F1206FBE558B40C04E55976
:10107B00601B1214AFE558B40D0BE5597007E5541E
:10108B00045401F554855859120CE08089E5562417
:0E109B0001FFE433FE7C007D031205D98D5663
:0110A9002224
:100F1B00E4F55875590C121439755DFF755E14752F
:100F2B005F2CE4FBFA79807841AF2DAE2CAD2BAC66
:100F3B002A120119AB4FAA4EA94DA84C1200258FAE
:100F4B00638E628D618C607B007A00793F1206FBA9
:100F5B00120E128F58E558B4101DE5597019AF4F8A
:100F6B00AE4EAD4DAC4CFBFA7980783F1200258F1D
:100F7B004F8E4E8D4D8C4CE558B4111DE5597019A3
:100F8B00AF4FAE4EAD4DAC4CFBFA7980783F1200B3
:100F9B00218F4F8E4E8D4D8C4CE4FFFE7D207C417E
:100FAB00AB4FAA4EA94DA84C1201B6500BE4F54F0E
:100FBB00F54E754DC6754C42E4FFFE7DC67C42ABCB
:100FCB004FAA4EA94DA84C1201B6600D400BE4F58B
:100FDB004FF54E754D20754C41E558B40C04E55951
:100FEB00601C1214AFE558B40D0BE5597007E554AE
:100FFB00045401F554855859120CE0020F21E556A3
:0F100B002401FFE433FE7C007D031205D98D56CE
:01101A0022B3
:1014AF00E53DC394C84013E4F53DF55D755E0075E9
:0B14BF005F30FB7A00793F120B0E2219
:10143900C3E52F94F4E52E940140131213C5AC06AD
:0F144900AD07E41202348F2D8E2C8D2B8C2A22AE
:10000300E557C394C8400BE4F557FB7A00792712F0
:0300130012B822FE
:100CE000E554147003020D9C046003020DF7E555F2
:100CF0006009E4FDFF1214E5755302E4FBFA798004
:100D00007841AF2DAE2CAD2BAC2A120119AB4FAAF6
:100D10004EA94DA84C120025E4FBFA792078411227
:100D200001B660025029E4FBFA79807841AF2DAE1C
:100D30002CAD2BAC2A120119AB4FAA4EA94DA84CD1
:100D4000120025E4FBFA79C678421201B6500C7DF8
:100D500001E4FF1214E57526018009E4FDFF121479
:100D6000E5E4F526E528B43B0DE529B43B087552CA
:100D700001E4F522F523E523B42008E522B40303BA
:100D8000755303E523B4A80FE522B4160AE4F5521F
:100D9000F522F523755302E4F555805BE5556401B2
:100DA0006009E4FDFF1214E5E4F553E528B43B0DBA
:100DB000E529B43B08755201E4F522F523E523B497
:100DC0002012E522B4030D7553017D01E4FF1214D6
:100DD000E5752601E523B4A81BE522B41616E4FD4B
:100DE000FF1214E5E4F526FF12156BE4F552F52227
:100DF000F523F553755501E5266012AE50AF517CD1
:100E0000007D641205D9ED4C7003635304AF5302A7
:020E1000156B60
:03001B0002113699
:10113600C0E0C0F0C083C082C0D075D000C000C07F
:1011460001C002C003C004C005C006C007053D05B6
:101156002FE52F7002052E05570551E55170020542
:1011660050E552B401080523E52370020522E53D4A
:1011760020E0127B007A007930AD4B12136EE54BFE
:10118600045407F54BD007D006D005D004D003D0C1
:1011960002D001D000D0D0D082D083D0F0D0E032BF
:101476007580FFE5A0541F4480F5A053A01FE4F536
:0D14860080E5A0541F44A0F5A053A01F2234
:1014CA0020B3037F042220B2037F052220B1037FC9
:0B14DA00062220B0037F07227F0022C3
:100E1200E4FEF55AC2C4D2C2D2B5D2B4E5B0540F80
:100E2200D2C4C2C2D2B5D2B4C4F8540FC868FFEE5D
:100E3200C454F048FEE5B0540FFDEF4DD2C4D2C207
:100E4200C2B5D2B4C4F8540FC868FFEEC454F04817
:100E5200FEE5B0540FFDEF4DD2C4D2C2D2B5C2B43A
:100E6200C4F8540FC868FFEEC454F048FEE5B0540D
:100E72000FFDEF4DF4FFEEF4FEEF8EF01206720F4F
:100E82001000010F0B00020F0600040F0100080EF4
:100E9200FC00100EF700200EF200400EED00800E56
:100EA200E801000EE302000EDE04000ED908000E77
:100EB200D410000ECF20000ECA40000EC5800000E4
:100EC200000F15755A04804E755A058049755A06E9
:100ED2008044755A07803F755A08803A755A0980CE
:100EE20035755A0A8030755A0B802B755A0C80263C
:100EF200755A0D8021755A0E801C755A0F80177510
:100F02005A108012755A11800D755A128008755A3E
:080F1200138003E4F55AAF5A05
:010F1A0022B4
:10156B00EFF4F580E5A0541F4480F5A053A01F2293
:041500007F057E00E5
:10150400EF1FAA0670011E4A600BE4FDEDC3940CA4
:0515140050EE0D80F710
:0115190022AF
:02145800A907E2
:10145A00E4FBC294E9139294121500D294E9C313DF
:0C146A00F90BBB08ED7F057E00021504A5
:10151A00E4FBC294ECC313FCD294309403430480DA
:09152A001215000BBB08EBAF0425
:011533002295
:10139E00C200D2947F0C7E00121504C2947F507E40
:1013AE0000121504D2947F0A7E00121504A29492A4
:0613BE0000121500A20060
:0113C4002206
:1013C50012139E7FCC1214587F4412145812139E88
:1013D5007FCC1214587FBE12145812151AA9071281
:0613E500151AEFFEE9FFFE
:0113EB0022DF
:060B0E008B5A8A5B895C32
:100B1400E4F560F561E560D394074003020CDFABB4
:100B24005AAA5BA95C856182758300120578120656
:100B34004C0C7F000C7F200C9F2D0B75300B8631E5
:100B44000B97320BA8330BB9340BCA350BDB360BBE
:100B5400EC370BFD380C0E390C1F410C3F430C5F76
:100B6400450C6F460C2F620C4F640C8F7500000C03
:100B7400B0AB5DAA5EA95F85608275830074C00214
:100B84000CADAB5DAA5EA95F85608275830074F9C4
:100B9400020CADAB5DAA5EA95F85608275830074AB
:100BA400A4020CADAB5DAA5EA95F8560827583006B
:100BB40074B0020CADAB5DAA5EA95F8560827583DB
:100BC400007499020CADAB5DAA5EA95F8560827565
:100BD40083007492020CADAB5DAA5EA95F8560824E
:100BE4007583007482020CADAB5DAA5EA95F85605B
:100BF4008275830074F8020CADAB5DAA5EA95F85B3
:100C040060827583007480020CADAB5DAA5EA95F3F
:100C14008560827583007490020CADAB5DAA5EA9F9
:100C24005F8560827583007488807EAB5DAA5EA94F
:100C34005F8560827583007483806EAB5DAA5EA954
:100C44005F85608275830074C6805EAB5DAA5EA911
:100C54005F85608275830074A1804EAB5DAA5EA936
:100C64005F8560827583007486803EAB5DAA5EA951
:100C74005F8560827583007481802EAB5DAA5EA956
:100C84005F85608275830074FF801EAB5DAA5EA9D8
:100C94005F85608275830074C1800EAB5DAA5EA916
:100CA4005F85608275830074BF1205B785618275A4
:100CB4008300A3AB5AAA5BA95C120578B42E15ABCA
:100CC4005DE55F2560F9E4355EFA12055F547F1235
:0B0CD40005A5056105600561020B1914
:010CDF0022F2
:10136E008D82758300120578F580E5A0541F44E048
:10137E00F5A053A01FAF05A8077401088002C33360
:10138E00D8FCF580E5A0541F44C0F5A053A01F2241
:10153400438E4053890F758B20758DD1C28FD28E07
:03154400D2AB2205
:10155A00538E7F5389F0758AF4758CFFC28DC28CC5
:01156A00225E
:1014E500E4FEBF01027E40BD01034306108E80E588
:0A14F500A0541F44A0F5A053A01F4F
:0114FF0022CA
:10154700E4FEC297EF1392A3EFC313FFD2970EBE29
:0215570008F09A
:01155900226F
:0814930075F00A84E5F04EFD3E
:10149B00C29300C29700D29300121547AF051215E5
:0414AB0047C293227F
:10133A00E4FDC29300C29700D29300121547E4FF5E
:10134A00C297EDC313FD30A303430580D2970FBFA5
:10135A0008EEC29300C29700D29700C2A300D2A39C
:03136A0000AF05CC
:01136D00225D
:10126600E4FD7F8E12149B12055FFF75F00A84C49D
:1012760054F0FEEF7F84121493900001120578FF5C
:1012860075F00A84C454F0FEEF7F82121493900026
:1012960002120578FF75F00A84C454F0FEEF75F06B
:1012A6000A84E5F04EFD7F8012149BE4FD7F8E02DA
:0212B600149B87
:1012B8007F8512133AEFC4540F75F00AA4FEEF5459
:1012C8000F2E1205A57F8312133AEFC4540F75F041
:1012D8000AA4FEEF540F2E9000011205B77F811269
:1012E800133AEFC4540F75F00AA4FEEF540F2E9072
:0512F80000020205B731
:10001E000202A2E86480F8E933E83360110460F06C
:10002E00ED33EC337009E8FCE9FDEAFEEBFF220448
:10003E0060DED3EB9FEA9EE99DE8C2E78CF0C2F743
:10004E0095F0400CE8CCF8E9CDF9EACEFAEBCFFB0F
:10005E0012026D85D0F05804700320D5B3E80470F9
:10006E00075002B2D50202AC92D5EC0460F7E4CC94
:10007E00C0E0C398F8603B94186008400DD0E0FBD8
:10008E00020284E4FBFAC9FC8028E830E406E4C9E5
:10009E00FBE4CAFCE830E305E4C9CACBFCE854072C
:1000AE006010F8C3E913F9EA13FAEB13FBEC13FC37
:1000BE00D8F130F52FC3E49CFCEF9BFFEE9AFEEDDA
:1000CE0099FDD0E0FBEF4E4D4C701222DB03020285
:1000DE00A9EC2CFCEF33FFEE33FEED33FDED30E7F4
:1000EE00EB020284EF2BFFEE3AFEED39FDD0E0FB82
:1000FE0050130BBB00030202ACED13FDEE13FEEF2B
:08010E0013FFEC13FC02028454
:100116000202ACEC5D046005E8590470030202A219
:1001260012026D580460F6EC4860F2EC7004FDFEB5
:10013600FF22C860DB2481C85009C39860025006BC
:100146000202A99850CAF582E9294B4A7005AB828A
:1001560002029875F0007C1A7880C3EF9BEE9AED48
:1001660099400DC3EF9BFFEE9AFEED99FDE842F034
:10017600DC23ACF0D0E0FFD0E0FED0E0FDAB822087
:10018600E7101BEB60BAEC2CFCEF33FFEE33FEED11
:1001960033FD020284E803F830E705C0F075F0008D
:1001A600EF2FFFEE33FEED33FD40B830E7C280AAF5
:1001B60074F8CC6480CCC86480C8F58204604FC3F0
:1001C600EB9FF5F0EA9E42F0E99D42F0E89C45F08F
:1001D600603C501DE5825FFFE582D313CB5BCBF419
:1001E6002B5582FB50280ABA002409B90020088042
:1001F6001DE5825BFBE582D313CF5FCFF4C3132FDC
:100206005582FF50090EBE00050DBD00010CC3EB63
:100216009FF5F0EA9E42F0E99D42F0E89C45F060C9
:0902260007CC4820E701B3EC22EB
:10022F0075F020800E75F010800575F0087D007E4A
:10023F00007F003392D530D50312062EEC334010D9
:10024F00EF33FFEE33FEED33FDEC33FCD5F0ED2253
:0E025F00E5F0247EA2D513CC92E7CDCEFF228F
:10069F00E571245DF8E6057122785A300702785D1E
:1006AF00E475F00112063C02055F2000EB7F2ED2AD
:1006BF00008018EF540F2490D43440D4FF30040B33
:1006CF00EF24BFB41A0050032461FFE572600215D6
:1006DF00720575E5757002057430070D785AE4756B
:1006EF00F00112063CEF0205A50213EC7403D207CA
:1006FF008003E4C207F5718B5A8A5B895CE4F5725B
:10070F00F574F575E57260077F201206DA80F575CE
:10071F0073FFC201C200C202C203C205C206C208F1
:10072F001206A8FF700D3007057F001206EBAF759C
:10073F00AE7422B4255FC2D5C2041206A8FF24D01E
:10074F00B40A00501A75F00A787230D50508B6FF52
:10075F000106C6A426F620D5047002D20380D92440
:10076F00CFB41A00EF5004C2E5D2040209D8D20167
:10077F0080C6D20080C0D20280BCD2D580BAD2054A
:10078F0080B47F201206DA2002077401B572004090
:10079F00F112069FFF1206DA020713D208D2068063
:1007AF009512069FFB12069FFA12069FF94A4B708D
:1007BF000679CF7A0A7BFF20022EE572602A7E002F
:1007CF008E8275830012057860060EEE657370F0E9
:1007DF00C2D5EBC0E0EAC0E0E9C0E0EE120A38D0C3
:1007EF00E0F9D0E0FAD0E0FB12055FFF60AAEBC0A2
:1007FF00E0EAC0E0E9C0E01206DAD0E02401F9D067
:10080F00E03400FAD0E0FBE5730460DCD573D980E7
:10081F0087D20280A2120A1B60F7E57370010412DF
:10082F0002B7A973600DE573600914F573120AC25C
:10083F00EF60F3EA30E702F404C3995077EAF42546
:10084F00730430E701E404F573800D120A1B60C1D5
:10085F00EA057325731202B7EA7870F630E701E400
:10086F00257304D5730420050114120A38E4C0E07F
:10087F00120AC27870E6601320E70714F61206C258
:10088F00802204F6D0E014C0E07F001206C2E573A8
:10089F0060071206B91573800B3005031206B9D025
:1008AF00E0020713D0E00480C5120A1B60A0E573B5
:1008BF00041202B77870EAF6E573200502600104AE
:0508CF002404120A38A8
:1008D40074FF04C0E0120AC21206C2E573200502C6
:1008E40060031206B9D0E0B573E87F451206CC78F0
:1008F40070E67F2B30E7047F2DF404C0E01206DAA3
:10090400D0E075F00A84C0F01206C3D0E01206C32A
:10091400020713791080027908C206C2088008D23F
:10092400D5790A8004790AC2D5E573047002F57397
:10093400E4FAFDFEFF12069FFC7B08200113120659
:100944009FFD7B1030000A12069FFE12069FFF7B5C
:1009540020EC3382D592D55013C3E43000069FFFB8
:10096400E49EFEE42001039DFDE49CFCE4CBF8C27C
:1009740001EC700CCFCECDCCE824F8F870F38017DE
:10098400C3EF33FFEE33FEED33FDEC33FCEB33FB0F
:10099400994002FB0FD8E9EB300105F8D0E0C448D8
:1009A400B201C0E00AEC4D4E4F78207B0070C2EAE1
:1009B400B5730040BCC0E0120A3AD0F0D0E0200188
:1009C40004C4C0E0C4B201C0F01206C3D0F0D5F034
:1009D400EB02071312064C07B05309175807814C52
:1009E400077D42091B4F09234409234907964309FC
:1009F4002955085A4608B8450824470AEF50078580
:100A04002D07892E07AC2B078D2307AA200AD82A85
:100A1400074548000007A4E573B4FF037573061285
:100A2400069FFC12069FFD12069FFE12069FFF788A
:100A3400690202E6790AA2D5200314300509B91027
:100A4400020404B9080104A2D520060250010420BE
:100A540002689202B572005034C0E07F203003195E
:100A64007F30A20272067205500F120A91C202C2AE
:100A740006C205C2087F30800F300503E9C0E012CA
:100A840006DA300503D0E0F9D0E0B572CC300517B2
:100A94007F30B9100C1206DA7F583004077F788053
:100AA40003B908031206DA3002057F2D0206DA7F45
:100AB400202008F87F2B2006F322920280CF7F00AB
:100AC400B4070050052469F8E6FF22286E756C6CA3
:100AD4002900D20112069F3001F8C201787230D584
:100AE4000108F60207452D5043495812069F240376
:100AF400B405004001E4900AEA931206CB743A125A
:0A0B040006CBD20375720402091734
:10026D00E9D2E7C933E833F892D5EDD2E7CD33ECD7
:07027D0033FC5002B2D52250
:10028400EC30E7100FBF000C0EBE00080DBD0004DB
:100294000BEB6014A2D5EB13FCED92E7FD2274FF87
:1002A400FCFDFEFF22E480F8A2D574FF13FC7D80E0
:0302B400E480EFF4
:1002B700F920E72824F950037907E4F42402FB180E
:1002C700DBFDE624FB5014E9600DE4F618E604F6BE
:0F02D700B40A08E4F6D9F57401F60A22C2D5225A
:1002E600ED33EC3392D5FA602AB4FF33EDC2E77BE7
:1002F600FF60067A03790BE4227A03791420D50489
:100306007A03790F224E614E002B494E46002D4945
:100316004E4600E47A08F608DAFC7B00740722E809
:10032600C0E0ECC0E0EDC0E0EEC0E0EFC0E0EA7592
:10033600F010A4CAABF075F04DA42BFBE435F0FC2D
:10034600EA2410FAEB34C5FBEC34D9FCEDC2E7FF26
:1003560075F056A4F42411C5F0F434C58FF0A42A20
:10036600E5F03BE43CF620E71412051FD0E0FFD091
:10037600E0FED0E0FDD0E0FC1201198014F4041276
:10038600051FD0E0FFD0E0FED0E0FDD0E0FC120378
:10039600E9D0E0F8E6FAEDD2E7CD33EC332482FB80
:1003A600E4C3CF33CFCE33CECD33CD33DBF37B07B0
:1003B60075F00A846004F6081B0AE5F0F6088FF06B
:1003C600740AA4FFACF08EF0740AA42CFEACF050B4
:1003D600010C8DF0740AA42CFDE435F0F608DBDE82
:0303E60074072277
:1003E900EC4D6011E8497017ED33EC3304600DE40E
:1003F900FCFFFEFD22E933E8330470F80202A21281
:10040900026D58046009E4CC248150062850090281
:1004190002AC2840030202A9C0E0EB4A7044B9804B
:1004290006D0E0FB020298EF4E701CBD8008EBFF7E
:10043900EAFEE9FD80EBE98DF0A4FEE5F00204D2C5
:10044900E9CDF9EAFEEBFFEF89F0A4FCE5F0CE89EE
:10045900F0A42EFFE435F0CD89F0A42DFEE435F0AB
:100469008067EF4E7005BD80D780C3EF8BF0A4ACD9
:10047900F0EE8BF0A42CFCE435F0F8EF8AF0A42C14
:10048900E5F038FCE433CB8DF0A42CFCE5F03BF827
:10049900EE8AF0A42CFCE5F038F8E433CF89F0A417
:1004A9002CFCE5F038CF3400CE89F0A42FFFE5F01D
:1004B9003EFEE433C98DF0A42EFEE5F039CD8AF075
:1004C900A42FFFE5F03EFEE43DFD33D0E0FB5007ED
:1004D9000BBB000F0202ACEC2CFCEF33FFEE33FE3A
:0604E900ED33FD02028468
:1004EF003F8000004120000042C80000447A000015
:1004FF00461C400047C35000497424004B18968097
:10050F004CBEBC205A0E1BCA6753C21C749DC5AE8D
:10051F00FB60065407601C232312054DEB54386013
:10052F00091205391205481203E9ECF8EDF9EEFA54
:10053F00EFCB22EB12054880F1543803241C9004B2
:10054F00EFFE93FC0EEE93FD0EEE930ECE93FF2275
:030000000210AA41
:0C10AA00787FE4F6D8FD7581750210F126
:10055F00BB010689828A83E0225002E722BBFE029A
:09056F00E32289828A83E49322CD
:10057800BB010CE58229F582E5833AF583E0225038
:1005880006E92582F8E622BBFE06E92582F8E22282
:0D059800E58229F582E5833AF583E493229C
:1005A500BB010689828A83F0225002F722BBFE0135
:0205B500F3222F
:1005B700F8BB010DE58229F582E5833AF583E8F07A
:1005C700225006E92582C8F622BBFE05E92582C826
:0205D700F2220E
:1005D900BC000BBE0029EF8DF084FFADF022E4CC06
:1005E900F875F008EF2FFFEE33FEEC33FCEE9DECCF
:1005F900984005FCEE9DFE0FD5F0E9E4CEFD22ED15
:10060900F8F5F0EE8420D21CFEADF075F008EF2F5E
:10061900FFED33FD4007985006D5F0F222C398FD4F
:050629000FD5F0EA22EC
:0E062E00C3E49FFFE49EFEE49DFDE49CFC22DD
:10063C00FAE6FB0808E6F925F0F618E6CA3AF622BF
:10064C00D083D082F8E4937012740193700DA3A33D
:10065C0093F8740193F5828883E473740293686051
:06066C00EFA3A3A380DF51
:10067200D083D082F8E4937012740193700DA3A317
:1006820093F8740193F5828883E473740293B5F04E
:0D069200067403936860E9A3A3A3A380D8B6
:1013EC00EFB40A07740D1213F7740A309811A89908
:1013FC00B8130CC2983098FDA899C298B811F63061
:07140C0099FDC299F5992238
:1010B6000211A6E493A3F8E493A34003F68001F299
:1010C60008DFF48029E493A3F85407240CC8C3333B
:1010D600C4540F4420C8834004F456800146F6DF0A
:1010E600E4800B0102040810204080901207E47E81
:1010F600019360BCA3FF543F30E509541FFEE493FF
:10110600A360010ECF54C025E060A840B8E493A3C5
:10111600FAE493A3F8E493A3C8C582C8CAC583CAF0
:10112600F0A3C8C582C8CAC583CADFE9DEE780BEA8
:011265000088
:00000001FF
