:04159800D2A07F0559
:10159C00000000000000000000000000000000AE91
:0615AC00071FEE70EB22A8
:0F15FB00D2A1121598C2A17F0512159CC2A02281
:0C160A00C2A1121598D2A17F0502159C08
:02148700AD07AF
:10148900E4FCC2A07F0512159CED30E704D2A180CF
:1014990002C2A17F0512159CD2A0ED25E0FD7F05B2
:0914A90012159C0CBC08DBC2A06A
:0114B2002217
:10152800E4FC121598ED25E0FD30A103430501C246
:0C153800A07F0512159C0CBC08E8AF0554
:011544002284
:10150400AB051215FB7FA0121487121516AF031238
:0215140014873A
:10151600121598A2A1E433FDC2A07F0512159CAF57
:0115260005BF
:0115270022A1
:10000300C2A0EF24FF92A17F0512159C121598C27E
:08001300A0D2A17F0502159C9B
:10142700E4FD1215FB7F901214871215167F4312E5
:1014370014871215161215FB7F91121487121516B1
:0F144700121528AD077F0112000312160AAF0518
:011456002273
:1015B200AB071215FB7F901214871215167F41128A
:0515C200150B02160AE2
:101338008B088A09890A1215041215FB7FA1121459
:1013480087121516AF0C150CEF6024121528AB0880
:10135800050AE50AAA097002050914F9EF1205DC65
:10136800E50C6004E4FF80027F0112000380D502CF
:02137800160A53
:1013F5008B0D8A0E890F121504AF111511EF601FA1
:10140500AB0D050FE50FAA0E7002050E14F91205B6
:1014150096FF1214871215167FC812159C80DA02E2
:02142500160AA5
:101545007580FFE5A0541F4480F5A053A01FE4F566
:0D15550080E5A0541F44A0F5A053A01F2264
:1015620020B3037F042220B2037F052220B1037F30
:0B157200062220B0037F07227F00222A
:100FAA00E4FEF550C2C4D2C2D2B5D2B4E5B0540FF1
:100FBA00D2C4C2C2D2B5D2B4C4F8540FC868FFEEC4
:100FCA00C454F048FEE5B0540FFDEF4DD2C4D2C26E
:100FDA00C2B5D2B4C4F8540FC868FFEEC454F0487E
:100FEA00FEE5B0540FFDEF4DD2C4D2C2D2B5C2B4A1
:100FFA00C4F8540FC868FFEEC454F048FEE5B05474
:10100A000FFDEF4DF4FFEEF4FEEF8EF01206A9107D
:10101A00A8000110A30002109E00041099000810F5
:10102A00940010108F0020108A0040108500801054
:10103A00800100107B020010760400107108001075
:10104A006C10001067200010624000105D800000E4
:10105A000010AD755004804E7550058049755006D4
:10106A008044755007803F755008803A7550098052
:10107A003575500A803075500B802B75500C8026C0
:10108A0075500D802175500E801C75500F80177594
:10109A0050108012755011800D75501280087550CD
:0810AA00138003E4F550AF5080
:0110B200221B
:1015EB00EFF4F580E5A0541F4480F5A053A01F2213
:060DC4008B508A51895298
:100DCA00E4F556F557E556D394074003020FA9AB4D
:100DDA0050AA51A9528557827583001205AF12068F
:100DEA00830F39000F39200F592D0E2E300E3F3147
:100DFA000E50320E61330E72340E83350E94360E57
:100E0A00A5370EB6380EC7390ED8410EF9430F1959
:100E1A00450F29460F69500F49550EE9620F0964BB
:100E2A0000000F7AAB53AA54A955855682758300E0
:100E3A0074C0020F77AB53AA54A95585568275839D
:100E4A000074F9020F77AB53AA54A95585568275D7
:100E5A00830074A4020F77AB53AA54A9558556820E
:100E6A0075830074B0020F77AB53AA54A9558556FF
:100E7A00827583007499020F77AB53AA54A95585DA
:100E8A0056827583007492020F77AB53AA54A95500
:100E9A008556827583007482020F77AB53AA54A9D0
:100EAA005585568275830074F8020F77AB53AA549E
:100EBA00A9558556827583007480020F77AB53AAB1
:100ECA0054A9558556827583007490020F77AB53E7
:100EDA00AA54A9558556827583007488020F77AB88
:100EEA0053AA54A9558556827583007483807EABB4
:100EFA0053AA54A95585568275830074C6806EAB71
:100F0A0053AA54A95585568275830074A1805EAB95
:100F1A0053AA54A9558556827583007486804EABB0
:100F2A0053AA54A9558556827583007481803EABB5
:100F3A0053AA54A95585568275830074FF802EAB37
:100F4A0053AA54A95585568275830074C1801EAB75
:100F5A0053AA54A95585568275830074BF800EAB77
:100F6A0053AA54A955855682758300748C1205EECE
:100F7A00855782758300A3AB50AA51A9521205AFB7
:100F8A00B42E15AB53E5552556F9E43554FA120536
:0F0F9A0096547F1205DC055705560557020DCFFB
:010FA9002225
:101457008D827583001205AFF580E5A0541F44E027
:10146700F5A053A01FAF05A8077401088002C33376
:10147700D8FCF580E5A0541F44C0F5A053A01F2257
:1015C700438E4053890F758B20758DD1C28FD28E74
:0315D700D2AB2272
:1015DA00538E7F5389F0758AF4758CFFC28DC28C45
:0115EA0022DE
:10129D007F0AC290758AF4758CFFD28CAE071FEE53
:1012AD00600E208D07A290B3929080F6C28D80ECD7
:1012BD00C28CE4F58AF58CD28C309103308DFAC254
:1012CD008C308D037FFF22AF8CEFAD8AFCEC1202C8
:0F12DD00427B967A43798B783C12001E12027B7B
:0112EC0022DF
:1014B300412020202025337500502575202530320A
:1014C300752D2530327500452020202020202575DC
:0A14D30000452020202020202D00DD
:101246000A2B000000000000000000000A44000015
:101256000000000000000000012800012400012514
:10126600000123000237000001363C012A0A012250
:101276000001420001260301390001350001430047
:10128600014103012900012714043B00000000016D
:061296003A00023F0000D7
:1012ED001215451215DA1215C7D2AF120FAA8F2992
:1012FD00E529B40415E5277011E5432401FFE43316
:10130D00FE7C007D031206108D43E54314600C1422
:10131D00600E2402700D12137A8008120B458003A3
:0B132D001210B385292712157D80C027
:10137A00E543700AE5416006533AF8433A0185436A
:10138A0041C3E5389490E53794014025E4F537F5F3
:10139A003812129D8F251213BC7553FF755414759C
:1013AA0055B37556008525577B007A00792B1207AD
:0213BA003222DD
:100B4500E4F54E754F14E543B4010CE541640160CD
:100B550006533AF8433A02D3E5389490E5379401C1
:100B6500400DE4F537F53812129D8F251213BC128E
:100B75000FAA8F4EE54EB4050BE54F7007E522042D
:100B85005401F522E522702EE54EB40912E54F70A9
:100B95000E740A2536F536D3945A4003753632E578
:100BA5004EB40812E54F700E740A252AF52AD3941F
:100BB500284003E4F52AE52264016003020D74125E
:100BC5001427AC07E4120247E4FBFA798078431254
:100BD5000127E4FBFA79A0784012001E8F3E8E3D76
:100BE5008D3C8C3BE54EB40906E54F7002F526E5D4
:100BF5004EB40807E54F7003752601E5261470030A
:100C0500020CC4046003020D74E4FFFE7D807C3F8A
:100C1500AB3EAA3DA93CA83B1201C4600250067533
:100C25003632020D74E4FFFE7D807C3FAB3EAA3D6B
:100C3500A93CA83B1201C4601D401BE4FFFEFD7CDE
:100C450040AB3EAA3DA93CA83B1201C46002500638
:100C550075363C020D74E4FFFEFD7C40AB3EAA3DBB
:100C6500A93CA83B1201C4601E401CE4FFFE7D4068
:100C75007C40AB3EAA3DA93CA83B1201C460025092
:100C850006753646020D74E4FFFE7D407C40AB3EA2
:100C9500AA3DA93CA83B1201C4601E401CE4FFFE0E
:100CA5007D807C40AB3EAA3DA93CA83B1201C460B7
:100CB500025006753650020D7475365A020D74E4ED
:100CC500FFFE7D807C3FAB3EAA3DA93CA83B1201BF
:100CD500C460025006E4F52A020D74E4FFFE7D802F
:100CE5007C3FAB3EAA3DA93CA83B1201C4601C4019
:100CF5001AE4FFFEFD7C40AB3EAA3DA93CA83B1291
:100D050001C460025005752A0A8064E4FFFEFD7C7B
:100D150040AB3EAA3DA93CA83B1201C4601D401B47
:100D2500E4FFFE7D407C40AB3EAA3DA93CA83B12BA
:100D350001C460025005752A148034E4FFFE7D402D
:100D45007C40AB3EAA3DA93CA83B1201C4601D40B6
:100D55001BE4FFFE7D807C40AB3EAA3DA93CA83B41
:100D65001201C460025005752A1E8003752A287574
:100D750053FF7554147555BCE5222401FFE433F582
:100D8500568F57755800852A59755A0085365B7BED
:100D9500007A00792B12073212157D854341E54E05
:100DA500B40416E54F7012E5432401FFE433FE7CDD
:0F0DB500007D031206108D4322854E4F020B5C0A
:1010B300E4F54E754F14E543B4020CE54164026058
:1010C30006533AF8433A04120FAA8F4ED3E53894E5
:1010D30090E5379401400DE4F537F53812129D8FF2
:1010E300251213BCE539C3940A50117553FF755487
:1010F300147555CA75560085395780097553FF75A0
:1011030054147555D47B007A00792B12073285432A
:1011130041E54EB40506E54F7002F539E54EB404DA
:1011230016E54F7012E5432401FFE433FE7C007D96
:0F113300031206108D4322854E4F12157D8088C2
:10157D00E528C394C84013E4F528F5537554007558
:0B158D005544FB7A00792B120DC4229C
:1013BC00E525D395364006E5239536400DE525C346
:1013CC00952A5008E523952A40020539E525D39541
:1013DC00365007E525C3952A50057535018006431F
:0913EC003A80E4F5358525232241
:03001B000211CE01
:1011CE00C0E0C0F0C083C082C0D075D000C000C0E7
:1011DE0001C002C003C004C005C006C00705280533
:1011EE0038E53870020537E52820E011E52404546F
:1011FE0007F5247B007A007944FD121457E535B4C7
:10120E000116AE3FAF407C037DE8120610ED4C7028
:10121E0007F53FF540633A80AF3A1215EBD007D091
:10122E0006D005D004D003D002D001D000D0D0D04B
:08123E0082D083D0F0D0E03231
:10001E00EC4D6011E8497017ED33EC3304600DE4DC
:10002E00FCFFFEFD22E933E8330470F80202E7120A
:10003E0002B258046009E4CC24815006285009020B
:10004E0002F12840030202EEC0E0EB4A7044B98090
:10005E0006D0E0FB0202DDEF4E701CBD8008EBFF08
:10006E00EAFEE9FD80EBE98DF0A4FEE5F002010762
:10007E00E9CDF9EAFEEBFFEF89F0A4FCE5F0CE89BD
:10008E00F0A42EFFE435F0CD89F0A42DFEE435F07A
:10009E008067EF4E7005BD80D780C3EF8BF0A4ACA8
:1000AE00F0EE8BF0A42CFCE435F0F8EF8AF0A42CE3
:1000BE00E5F038FCE433CB8DF0A42CFCE5F03BF8F6
:1000CE00EE8AF0A42CFCE5F038F8E433CF89F0A4E6
:1000DE002CFCE5F038CF3400CE89F0A42FFFE5F0EC
:1000EE003EFEE433C98DF0A42EFEE5F039CD8AF044
:1000FE00A42FFFE5F03EFEE43DFD33D0E0FB5007BC
:10010E000BBB000F0202F1EC2CFCEF33FFEE33FEC3
:06011E00ED33FD0202C9F1
:100124000202F1EC5D046005E8590470030202E781
:100134001202B2580460F6EC4860F2EC7004FDFE62
:10014400FF22C860DB2481C85009C39860025006AE
:100154000202EE9850CAF582E9294B4A7005AB8237
:100164000202DD75F0007C1A7880C3EF9BEE9AEDF5
:1001740099400DC3EF9BFFEE9AFEED99FDE842F026
:10018400DC23ACF0D0E0FFD0E0FED0E0FDAB822079
:10019400E7101BEB60BAEC2CFCEF33FFEE33FEED03
:1001A40033FD0202C9E803F830E705C0F075F0003A
:1001B400EF2FFFEE33FEED33FD40B830E7C280AAE7
:1001C40074F8CC6480CCC86480C8F58204604FC3E2
:1001D400EB9FF5F0EA9E42F0E99D42F0E89C45F081
:1001E400603C501DE5825FFFE582D313CB5BCBF40B
:1001F4002B5582FB50280ABA002409B90020088034
:100204001DE5825BFBE582D313CF5FCFF4C3132FCD
:100214005582FF50090EBE00050DBD00010CC3EB55
:100224009FF5F0EA9E42F0E99D42F0E89C45F060BB
:0902340007CC4820E701B3EC22DD
:10023D0075F020800E75F010800575F0087D007E3C
:10024D00007F003392D530D503120665EC33401094
:10025D00EF33FFEE33FEED33FDEC33FCD5F0ED2245
:0E026D00E5F0247EA2D513CC92E7CDCEFF2281
:10027B00EDD2E7CD33EC3392D524814006E4FFFE7B
:10028B00FDFC22FCE4CFCECDCC24E0501174FF80DA
:10029B00EDC3CC13CCCD13CDCE13CECF13CF047077
:0702AB00F030D5DE0206650C
:1006D600E5672453F8E60567227850300702785319
:1006E600E475F0011206730205962000EB7F2ED208
:1006F600008018EF540F2490D43440D4FF30040BFC
:10070600EF24BFB41A0050032461FFE568600215A8
:1007160068056BE56B7002056A30070D7850E47565
:10072600F001120673EF0205DC0214DD7403D20732
:100736008003E4C207F5678B508A518952E4F56855
:10074600F56AF56BE56860077F2012071180F5757D
:1007560069FFC201C200C202C203C205C206C208C4
:100766001206DFFF700D3007057F00120722AF6B00
:10077600AE6A22B4255FC2D5C2041206DFFF24D0BA
:10078600B40A00501A75F00A786830D50508B6FF25
:100796000106C6A426F620D5047002D20380D92409
:1007A600CFB41A00EF5004C2E5D204020A0FD201F8
:1007B60080C6D20080C0D20280BCD2D580BAD20513
:1007C60080B47F201207112002077401B56800402B
:1007D600F11206D6FF12071102074AD208D2068086
:1007E600951206D6FB1206D6FA1206D6F94A4B70B1
:1007F6000679067A0B7BFF20022EE568602A7E00CA
:100806008E827583001205AF60060EEE656970F084
:10081600C2D5EBC0E0EAC0E0E9C0E0EE120A6FD054
:10082600E0F9D0E0FAD0E0FB120596FF60AAEBC033
:10083600E0EAC0E0E9C0E0120711D0E02401F9D0F7
:10084600E03400FAD0E0FBE5690460DCD569D980C4
:1008560087D20280A2120A5260F7E569700104127B
:1008660002FCA969600DE569600914F569120AF9C7
:10087600EF60F3EA30E702F404C3995077EAF4250F
:10088600690430E701E404F569800D120A5260C17B
:10089600EA056925691202FCEA7866F630E701E4A2
:1008A600256904D5690420050114120A6FE4C0E025
:1008B600120AF97866E6601320E70714F61206F9BD
:1008C600802204F6D0E014C0E07F001206F9E56944
:1008D60060071206F01569800B3005031206F0D08A
:1008E600E002074AD0E00480C5120A5260A0E5691A
:1008F600041202FC7866EAF6E56920050260010446
:050906002404120A6F39
:10090B0074FF04C0E0120AF91206F9E5692005022A
:10091B0060031206F0D0E0B569E87F451207037853
:10092B0066E67F2B30E7047F2DF404C0E01207113D
:10093B00D0E075F00A84C0F01206FAD0E01206FA85
:10094B0002074A791080027908C206C2088008D2D1
:10095B00D5790A8004790AC2D5E569047002F56974
:10096B00E4FAFDFEFF1206D6FC7B082001131206EB
:10097B00D6FD7B1030000A1206D6FE1206D6FF7B80
:10098B0020EC3382D592D55013C3E43000069FFF81
:10099B00E49EFEE42001039DFDE49CFCE4CBF8C245
:1009AB0001EC700CCFCECDCCE824F8F870F38017A7
:1009BB00C3EF33FFEE33FEED33FDEC33FCEB33FBD8
:1009CB00994002FB0FD8E9EB300105F8D0E0C448A1
:1009DB00B201C0E00AEC4D4E4F78207B0070C2EAAA
:1009EB00B5690040BCC0E0120A71D0F0D0E0200124
:1009FB0004C4C0E0C4B201C0F01206FAD0F0D5F0C6
:100A0B00EB02074A12068307E753094E5807B84C07
:100A1B0007B44209524F095A44095A4907CD4309B1
:100A2B00605508914608EF45085B470B265007BCFD
:100A3B002D07C02E07E32B07C42307E1200B0F2A3A
:100A4B00077C48000007DBE569B4FF0375690612F4
:100A5B0006D6FC1206D6FD1206D6FE1206D6FF7877
:100A6B005F02032B790AA2D5200314300509B910B4
:100A7B00020404B9080104A2D52006025001042087
:100A8B0002689202B568005034C0E07F2030031931
:100A9B007F30A20272067205500F120AC8C202C240
:100AAB0006C205C2087F30800F300503E9C0E01293
:100ABB000711300503D0E0F9D0E0B568CC3005174D
:100ACB007F30B9100C1207117F583004077F7880E4
:100ADB0003B908031207113002057F2D0207117F9E
:100AEB00202008F87F2B2006F322920280CF7F0074
:100AFB00B407005005245FF8E6FF22286E756C6C76
:100B0B002900D2011206D63001F8C201786830D51F
:100B1B000108F602077C2D504349581206D62403D0
:100B2B00B405004001E4900B2193120702743A12B2
:0A0B3B000702D20375680402094E98
:1002B200E9D2E7C933E833F892D5EDD2E7CD33EC92
:0702C20033FC5002B2D5220B
:1002C900EC30E7100FBF000C0EBE00080DBD000496
:1002D9000BEB6014A2D5EB13FCED92E7FD2274FF42
:1002E900FCFDFEFF22E480F8A2D574FF13FC7D809B
:0302F900E480EFAF
:1002FC00F920E72824F950037907E4F42402FB18C9
:10030C00DBFDE624FB5014E9600DE4F618E604F678
:0F031C00B40A08E4F6D9F57401F60A22C2D52214
:10032B00ED33EC3392D5FA602AB4FF33EDC2E77BA1
:10033B00FF60067A037950E4227A03795920D504B9
:10034B007A037954224E614E002B494E46002D49BB
:10035B004E4600E47A08F608DAFC7B00740722E8C4
:10036B00C0E0ECC0E0EDC0E0EEC0E0EFC0E0EA754D
:10037B00F010A4CAABF075F04DA42BFBE435F0FCE8
:10038B00EA2410FAEB34C5FBEC34D9FCEDC2E7FFE1
:10039B0075F056A4F42411C5F0F434C58FF0A42ADB
:1003AB00E5F03BE43CF620E714120556D0E0FFD015
:1003BB00E0FED0E0FDD0E0FC1201278014F4041223
:1003CB000556D0E0FFD0E0FED0E0FDD0E0FC1200FF
:1003DB001ED0E0F8E6FAEDD2E7CD33EC332482FB06
:1003EB00E4C3CF33CFCE33CECD33CD33DBF37B076B
:1003FB0075F00A846004F6081B0AE5F0F6088FF026
:10040B00740AA4FFACF08EF0740AA42CFEACF0506E
:10041B00010C8DF0740AA42CFDE435F0F608DBDE3C
:03042B0074072231
:10042E000202E7E86480F8E933E83360110460F013
:10043E00ED33EC337009E8FCE9FDEAFEEBFF220434
:10044E0060DED3EB9FEA9EE99DE8C2E78CF0C2F72F
:10045E0095F0400CE8CCF8E9CDF9EACEFAEBCFFBFB
:10046E001202B285D0F05804700320D5B3E80470A0
:10047E00075002B2D50202F192D5EC0460F7E4CC3B
:10048E00C0E0C398F8603B94186008400DD0E0FBC4
:10049E000202C9E4FBFAC9FC8028E830E406E4C98C
:1004AE00FBE4CAFCE830E305E4C9CACBFCE8540718
:1004BE006010F8C3E913F9EA13FAEB13FBEC13FC23
:1004CE00D8F130F52FC3E49CFCEF9BFFEE9AFEEDC6
:1004DE0099FDD0E0FBEF4E4D4C701222DB03020271
:1004EE00EEEC2CFCEF33FFEE33FEED33FDED30E79B
:1004FE00EB0202C9EF2BFFEE3AFEED39FDD0E0FB29
:10050E0050130BBB00030202F1ED13FDEE13FEEFD1
:08051E0013FFEC13FC0202C9FB
:100526003F8000004120000042C80000447A0000DD
:10053600461C400047C35000497424004B1896805F
:100546004CBEBC205A0E1BCA6753C21C749DC5AE56
:10055600FB60065407601C2323120584EB543860A5
:100566000912057012057F12001EECF8EDF9EEFA7D
:10057600EFCB22EB12057F80F1543803241C900543
:1005860026FE93FC0EEE93FD0EEE930ECE93FF2207
:03000000021142A8
:0C114200787FE4F6D8FD75816B021189FE
:10059600BB010689828A83E0225002E722BBFE0263
:0905A600E32289828A83E4932296
:1005AF00BB010CE58229F582E5833AF583E0225001
:1005BF0006E92582F8E622BBFE06E92582F8E2224B
:0D05CF00E58229F582E5833AF583E4932265
:1005DC00BB010689828A83F0225002F722BBFE01FE
:0205EC00F322F8
:1005EE00F8BB010DE58229F582E5833AF583E8F043
:1005FE00225006E92582C8F622BBFE05E92582C8EF
:02060E00F222D6
:10061000BC000BBE0029EF8DF084FFADF022E4CCCE
:10062000F875F008EF2FFFEE33FEEC33FCEE9DEC97
:10063000984005FCEE9DFE0FD5F0E9E4CEFD22EDDD
:10064000F8F5F0EE8420D21CFEADF075F008EF2F27
:10065000FFED33FD4007985006D5F0F222C398FD18
:050660000FD5F0EA22B5
:0E066500C3E49FFFE49EFEE49DFDE49CFC22A6
:10067300FAE6FB0808E6F925F0F618E6CA3AF62288
:10068300D083D082F8E4937012740193700DA3A306
:1006930093F8740193F5828883E47374029368601A
:0606A300EFA3A3A380DF1A
:1006A900D083D082F8E4937012740193700DA3A3E0
:1006B90093F8740193F5828883E473740293B5F017
:0D06C900067403936860E9A3A3A3A380D87F
:1014DD00EFB40A07740D1214E8740A309811A89924
:1014ED00B8130CC2983098FDA899C298B811F6306F
:0714FD0099FDC299F5992247
:10114E000212EDE493A3F8E493A34003F68001F2B8
:10115E0008DFF48029E493A3F85407240CC8C333A2
:10116E00C4540F4420C8834004F456800146F6DF71
:10117E00E4800B0102040810204080901246E47EA9
:10118E00019360BCA3FF543F30E509541FFEE49366
:10119E00A360010ECF54C025E060A840B8E493A32D
:1011AE00FAE493A3F8E493A3C8C582C8CAC583CA58
:1011BE00F0A3C8C582C8CAC583CADFE9DEE780BE10
:01129C000051
:00000001FF
