:0F0C4B00253032752D253032752D25303275004C
:100A5000042E00000000022C0000022300000226E9
:100A6000000002480000023A00000128250125008C
:080A70000122000329173B37A6
:100AC400120AE6120C15D2AF7B007A0079291208BB
:100AD40042120BD41208D9120BEA120B8C120BBD62
:020AE40080EFA1
:100BD400C3E52D94C8E52C9400400AE4F52CF52DCA
:060BE400AF28120C3B22B9
:1008D900C3E52494C8E52394004037E4F523F524BF
:1008E900750BFF750C0C750D4BF50E85290FF51061
:1008F900852A11F512852B13FB7A00793C12006ABF
:10090900750B00750C00750D327B007A00793C126D
:03091900036A224C
:100BEA00D3E5279414E5269400500AE4F526F52760
:060BFA001205288F2222E3
:100BBD00C3E54994F4E5489401400BE4F548F54943
:070BCD007D01FF120B57220E
:100B8C00C3E53B94F4E53A9401400DE4F53AF53BAA
:090B9C00FB7A0079291208942269
:03000B0002071FCA
:10071F00C0E0C0F0C083C082C0D075D000C000C0A0
:10072F0001C002C003C004C005C006C007E53124E4
:10073F0001F531E43530F530E4352FF52FE4352E62
:10074F00F52E052DE52D7002052C0524E5247002EC
:10075F0005230527E527700205260549E54970029F
:10076F000548053BE53B7002053AE5315401FFE4CE
:10077F00FEFDFCFBFAF9F8C31206AB700FE525047A
:10078F005407F5257A007932FD1209C4D007D00637
:10079F00D005D004D003D002D001D000D0D0D08269
:0707AF00D083D0F0D0E0324E
:100C1500438E805389F0758A20758CD1C28DD28C14
:030C2500D2A9222F
:100AE6007580FFE5A0541F4480F5A053A01FE4F5D0
:0D0AF60080E5A0541F44A0F5A053A01F22CE
:100C3B00EFF4F580E5A0541F4480F5A053A01F22CC
:06036A008B088A09890AD4
:10037000E4F50EF50FE50ED394074003020527AB15
:1003800008AA09A90A850F8275830012064A120677
:10039000BC04D70004D72004E72D03CE3003DF319F
:1003A00003F03204013304123404233504343604D8
:1003B000453704563804673904774104974304B736
:1003C0004504C74604876204A764000004F8AB0B29
:1003D000AA0CA90D850E8275830074C00204F5ABCA
:1003E0000BAA0CA90D850E8275830074F90204F521
:1003F000AB0BAA0CA90D850E8275830074A40204B0
:10040000F5AB0BAA0CA90D850E8275830074B002A2
:1004100004F5AB0BAA0CA90D850E827583007499A7
:100420000204F5AB0BAA0CA90D850E82758300742E
:10043000920204F5AB0BAA0CA90D850E8275830000
:1004400074820204F5AB0BAA0CA90D850E8275838C
:100450000074F80204F5AB0BAA0CA90D850E827589
:10046000830074800204F5AB0BAA0CA90D850E82E3
:100470007583007490807EAB0BAA0CA90D850E824B
:100480007583007488806EAB0BAA0CA90D850E8253
:100490007583007483805EAB0BAA0CA90D850E8258
:1004A00075830074C6804EAB0BAA0CA90D850E8215
:1004B00075830074A1803EAB0BAA0CA90D850E823A
:1004C0007583007486802EAB0BAA0CA90D850E8255
:1004D0007583007481801EAB0BAA0CA90D850E825A
:1004E00075830074FF800EAB0BAA0CA90D850E82DC
:1004F00075830074BF120689850F82758300A3ABD4
:1005000008AA09A90A12064AB42E15AB0BE50D2557
:100510000EF9E4350CFA120631547F120677050FF6
:07052000050E050F02037533
:0105270022B1
:1009C4008D8275830012064AF580E5A0541F44E029
:1009D400F5A053A01FAF05A8077401088002C33314
:1009E400D8FCF580E5A0541F44C0F5A053A01F22F5
:100B3C0020B3037F042220B2037F052220B1037F60
:0B0B4C00062220B0037F07227F00225A
:10052800E4FEF508C2C4D2C2D2B5D2B4E5B0540FC5
:10053800D2C4C2C2D2B5D2B4C4F8540FC868FFEE50
:10054800C454F048FEE5B0540FFDEF4DD2C4D2C2FA
:10055800C2B5D2B4C4F8540FC868FFEEC454F0480A
:10056800FEE5B0540FFDEF4DD2C4D2C2D2B5C2B42D
:10057800C4F8540FC868FFEEC454F048FEE5B05400
:100588000FFDEF4DF4FFEEF4FEEF8EF01206E206DB
:1005980026000106210002061C00040617000806B2
:1005A800120010060D002006080040060300800512
:1005B800FE010005F9020005F4040005EF08000536
:1005C800EA100005E5200005E0400005DB8000009A
:1005D80000062B750804804E7508058049750806C5
:1005E8008044750807803F750808803A75080980B7
:1005F8003575080A803075080B802B75080C802625
:1006080075080D802175080E801C75080F801775F8
:1006180008108012750811800D7508128008750879
:08062800138003E4F508AF089C
:0106300022A7
:100B5700E4FEBF01027E40BD01034306108E80E51F
:0A0B6700A0541F44A0F5A053A01FE6
:010B71002261
:100C2800E4FEC297EF1392A3EFC313FFD2970EBE51
:020C380008F0C2
:010C3A002297
:080B200075F00A84E5F04EFDBA
:100B2800C29300C29700D29300120C28AF05120C92
:040B380028C293221A
:10095E00E4FDC29300C29700D29300120C28E4FF6C
:10096E00C297EDC313FD30A303430580D2970FBF8B
:10097E0008EEC29300C29700D29700C2A300D2A382
:03098E0000AF05B2
:010991002243
:10084200E4FD7F8E120B28120631FF75F00A84C474
:1008520054F0FEEF7F84120B2090000112064AFF33
:1008620075F00A84C454F0FEEF7F82120B209000D0
:100872000212064AFF75F00A84C454F0FEEF75F0C6
:100882000A84E5F04EFD7F80120B28E4FD7F8E0284
:020892000B2831
:100894007F8512095EEFC4540F75F00AA4FEEF546D
:1008A4000F2E1206777F8312095EEFC4540F75F082
:1008B4000AA4FEEF540F2E9000011206897F8112C4
:1008C400095EEFC4540F75F00AA4FEEF540F2E9086
:0508D40000020206898C
:040B7200D2A07F0589
:100B7600000000000000000000000000000000AEC1
:060B8600071FEE70EB22D8
:0F0C5A00D2A1120B72C2A17F05120B76C2A0228B
:0C0C6900C2A1120B72D2A17F05020B7613
:020A2400AD071C
:100A2600E4FCC2A07F05120B76ED30E704D2A1806C
:100A360002C2A17F05120B76D2A0ED25E0FD7F054F
:090A4600120B760CBC08DBC2A007
:010A4F002284
:100B0300E4FC120B72ED25E0FD30A103430501C2A5
:0C0B1300A07F05120B760CBC08E8AF05B3
:010B1F0022B3
:100AA000AB05120C5A7FA0120A24120AB2AF03122D
:020AB0000A2416
:100AB200120B72A2A1E433FDC2A07F05120B76AF26
:010AC200052E
:010AC3002210
:100BA500C2A0EF24FF92A17F05120B76120B72C231
:080BB500A0D2A17F05020B761E
:1009F400E4FD120C5A7F90120A24120AB27F4312A9
:100A04000A24120AB2120C5A7F91120A24120AB250
:0F0A1400120B03AD077F01120BA5120C69AF0582
:010A230022B0
:100C0000AB07120C5A7F90120A24120AB27F4112CB
:050C10000AA7020C69B7
:10091C008B4A8A4B894C120AA0120C5A7FA1120ADC
:10092C0024120AB2AF4E154EEF6024120B03AB4AE1
:10093C00054CE54CAA4B7002054B14F9EF120677E7
:10094C00E54E6004E4FF80027F01120BA580D50206
:02095C000C6924
:100992008B4F8A508951120AA0AF531553EF601F33
:1009A200AB4F0551E551AA507002055014F91206D9
:1009B20031FF120A24120AB27FC8120B7680DA02C1
:0209C2000C69BE
:030000000207B63E
:0C07B600787FE4F6D8FD7581530207FD42
:10063100BB010689828A83E0225002E722BBFE02C7
:09064100E32289828A83E49322FA
:10064A00BB010CE58229F582E5833AF583E0225065
:10065A0006E92582F8E622BBFE06E92582F8E222AF
:0D066A00E58229F582E5833AF583E49322C9
:10067700BB010689828A83F0225002F722BBFE0162
:02068700F3225C
:10068900F8BB010DE58229F582E5833AF583E8F0A7
:10069900225006E92582C8F622BBFE05E92582C853
:0206A900F2223B
:1006AB00EB9FF5F0EA9E42F0E99D42F0E89C45F0A5
:0106BB00221C
:1006BC00D083D082F8E4937012740193700DA3A3CD
:1006CC0093F8740193F5828883E4737402936860E1
:0606DC00EFA3A3A380DFE1
:1006E200D083D082F8E4937012740193700DA3A3A7
:1006F20093F8740193F5828883E473740293B5F0DE
:0D070200067403936860E9A3A3A3A380D845
:10000E00E517240BF8E60517227808300702780B5F
:10001E00E475F00112070F0206312000EB7F2ED29D
:10002E00008018EF540F2490D43440D4FF30040BCA
:10003E00EF24BFB41A0050032461FFE518600215C7
:10004E0018051BE51B7002051A30070D7808E475BC
:10005E00F00112070FEF020677020A797403D20736
:10006E008003E4C207F5178B088A09890AE4F5189C
:10007E00F51AF51BE51860077F2012004980F5750B
:10008E0019FFC201C200C202C203C205C206C208E3
:10009E00120017FF700D3007057F0012005AAF1BBC
:1000AE00AE1A22B4255FC2D5C204120017FF24D0A7
:1000BE00B40A00501A75F00A781830D50508B6FF44
:1000CE000106C6A426F620D5047002D20380D924D8
:1000DE00CFB41A00EF5004C2E5D20402025AD20184
:1000EE0080C6D20080C0D20280BCD2D580BAD205E2
:1000FE0080B47F201200492002077401B518004019
:10010E00F112000EFF120049020082D208D20680C0
:10011E009512000EFB12000EFA12000EF94A4B70E9
:10012E0006792B7A037BFF20022EE518602A7E00CB
:10013E008E8275830012064A60060EEE651970F007
:10014E00C2D5EBC0E0EAC0E0E9C0E0EE1202A1D0F9
:10015E00E0F9D0E0FAD0E0FB120631FF60AAEBC066
:10016E00E0EAC0E0E9C0E0120049D0E02401F9D095
:10017E00E03400FAD0E0FBE5190460DCD519D98033
:10018E00877BFF7A02799DD202809C79108002795A
:10019E0008C206C2088008D2D5790A8004790AC23C
:1001AE00D5E519047002F519E4FAFDFEFF12000EF2
:1001BE00FC7B0820011312000EFD7B1030000A128A
:1001CE00000EFE12000EFF7B20EC3382D592D5502E
:1001DE0013C3E43000069FFFE49EFEE42001039D5E
:1001EE00FDE49CFCE4CBF8C201EC700CCFCECDCC80
:1001FE00E824F8F870F38017C3EF33FFEE33FEED0B
:10020E0033FDEC33FCEB33FB994002FB0FD8E9EBEB
:10021E00300105F8D0E0C448B201C0E00AEC4D4E02
:10022E004F78207B0070C2EAB5190040BCC0E012C6
:10023E0002A3D0F0D0E0200104C4C0E0C4B201C0DB
:10024E00F0120032D0F0D5F0EB0200821206BC01A3
:10025E001F5301995800F04C00EC42019D4F01A52F
:0F026E004401A54901054301AB55018F46018F9E
:10027D0045018F47034B5000F42D00F82E011B2B29
:10028D0000FC2301192003342A00B4480000011397
:10029D003F3F3F00790AA2D5200314300509B9105C
:1002AD00020404B9080104A2D5200602500104205D
:1002BD0002689202B518005034C0E07F2030031957
:1002CD007F30A20272067205500F1202FAC202C2EC
:1002DD0006C205C2087F30800F300503E9C0E01269
:1002ED000049300503D0E0F9D0E0B518CC30051742
:1002FD007F30B9100C1200497F583004077F788089
:10030D0003B908031200493002057F2D0200497F11
:10031D00202008F87F2B2006F322920280CF286E32
:10032D00756C6C2900D20112000E3001F8C20178F3
:10033D001830D50108F60200B42D5043495812006B
:10034D000E2403B405004001E49003469312003AD5
:0D035D00743A12003AD20375180402019997
:1007C200020AC4E493A3F8E493A34003F68001F27F
:1007D20008DFF48029E493A3F85407240CC8C33338
:1007E200C4540F4420C8834004F456800146F6DF07
:1007F200E4800B0102040810204080900A50E47E3D
:10080200019360BCA3FF543F30E509541FFEE493FB
:10081200A360010ECF54C025E060A840B8E493A3C2
:10082200FAE493A3F8E493A3C8C582C8CAC583CAED
:10083200F0A3C8C582C8CAC583CADFE9DEE780BEA5
:010A7800007D
:10070F00FAE6FB0808E6F925F0F618E6CA3AF622EB
:100A7900EFB40A07740D120A84740A309811A89900
:100A8900B8130CC2983098FDA899C298B811F630DD
:070A990099FDC299F59922B5
:00000001FF
