:0513E700253033750004
:100FAB000436000000000234000002250000022875
:100FBB000000025300000242000002220000022A3D
:100FCB0000000130250127000124000331173B37B6
:0D0FDB00042C000000000251000001500035
:101142001212241213AB121385D2AF7B007A0079EC
:1011520031120E8212132E120FE91213441212FED2
:0B1162001210E812131712135A80E954
:10132E00C3E53594C8E5349400400AE4F534F53548
:06133E00AF301213BC22C7
:100FE900C3E52694C8E5259400402DE4F525F526AA
:100FF9007558FF755913755AE7F55B85505CFB7A8F
:10100900007944120675755800755900755A3A7B6E
:09101900007A007944120A8822D1
:10134400D3E5299414E5289400500AE4F528F529F6
:06135400120C468F24225A
:10131700C3E55494F4E5539401400BE4F553F554B5
:071327007D01FF1212952267
:1012FE00C3E54394F4E5429401400DE4F542F54311
:09130E00FB7A007931120F242250
:1010E800C3E52394F4E52294014022E4F522F52394
:1010F800121194AC06AD07EC1201C9E4FBFA798031
:0E11080078411201278F2F8E2E8D2D8C2C22D8
:10135A00C3E52B94E8E52A9403400AE4F52AF52B21
:06136A00120ED48F502288
:03001B00020D4F84
:100D4F00C0E0C0F0C083C082C0D075D000C000C06A
:100D5F0001C002C003C004C005C006C007E53924A6
:100D6F0001F539E43538F538E43537F537E43536FC
:100D7F00F5360535E535700205340526E526700292
:100D8F0005250529E529700205280554E55470024B
:100D9F0005530543E543700205420523E523700221
:100DAF000522052BE52B7002052AE5395401FFE4D6
:100DBF00FEFDFCFBFAF9F8C31205A5700FE5270439
:100DCF005407F5277A00793AFD121088D007D0061C
:100DDF00D005D004D003D002D001D000D0D0D08223
:070DEF00D083D0F0D0E03208
:10138500438E4053890F758B20758DD1C28FD28EB8
:03139500D2AB22B6
:1013AB00538E7F5389F0758AF4758CFFC28DC28C76
:0113BB00220F
:101224007580FFE5A0541F4480F5A053A01FE4F58A
:0D12340080E5A0541F44A0F5A053A01F2288
:1013BC00EFF4F580E5A0541F4480F5A053A01F2244
:060A88008B558A568957C8
:100A8E00E4F55BF55CE55BD394074003020C45ABE4
:100A9E0055AA56A957855C82758300120536120534
:100AAE00C60BF5000BF5200C052D0AEC300AFD31B6
:100ABE000B0E320B1F330B30340B41350B52360BF2
:100ACE0063370B74380B85390B95410BB5430BD53A
:100ADE00450BE5460BA5620BC56400000C16AB5822
:100AEE00AA59A95A855B8275830074C0020C13AB98
:100AFE0058AA59A95A855B8275830074F9020C13A2
:100B0E00AB58AA59A95A855B8275830074A4020C4E
:100B1E0013AB58AA59A95A855B8275830074B0022B
:100B2E000C13AB58AA59A95A855B82758300749928
:100B3E00020C13AB58AA59A95A855B8275830074AF
:100B4E0092020C13AB58AA59A95A855B8275830081
:100B5E007482020C13AB58AA59A95A855B8275830D
:100B6E000074F8020C13AB58AA59A95A855B82750A
:100B7E0083007480020C13AB58AA59A95A855B8264
:100B8E007583007490807EAB58AA59A95A855B82F2
:100B9E007583007488806EAB58AA59A95A855B82FA
:100BAE007583007483805EAB58AA59A95A855B82FF
:100BBE0075830074C6804EAB58AA59A95A855B82BC
:100BCE0075830074A1803EAB58AA59A95A855B82E1
:100BDE007583007486802EAB58AA59A95A855B82FC
:100BEE007583007481801EAB58AA59A95A855B8201
:100BFE0075830074FF800EAB58AA59A95A855B8283
:100C0E0075830074BF120575855C82758300A3AB76
:100C1E0055AA56A957120536B42E15AB58E55A25C6
:100C2E005BF9E43559FA12051D547F120563055C14
:070C3E00055B055C020A934F
:010C4500228C
:101088008D82758300120536F580E5A0541F44E073
:10109800F5A053A01FAF05A8077401088002C33349
:1010A800D8FCF580E5A0541F44C0F5A053A01F222A
:10127A0020B3037F042220B2037F052220B1037F1B
:0B128A00062220B0037F07227F002215
:100C4600E4FEF555C2C4D2C2D2B5D2B4E5B0540F53
:100C5600D2C4C2C2D2B5D2B4C4F8540FC868FFEE2B
:100C6600C454F048FEE5B0540FFDEF4DD2C4D2C2D5
:100C7600C2B5D2B4C4F8540FC868FFEEC454F048E5
:100C8600FEE5B0540FFDEF4DD2C4D2C2D2B5C2B408
:100C9600C4F8540FC868FFEEC454F048FEE5B054DB
:100CA6000FFDEF4DF4FFEEF4FEEF8EF01205EC0DA6
:100CB6004400010D3F00020D3A00040D3500080DF9
:100CC6003000100D2B00200D2600400D2100800D58
:100CD6001C01000D1702000D1204000D0D08000D79
:100CE6000810000D0320000CFE40000CF9800000E7
:100CF600000D49755504804E755505804975550694
:100D06008044755507803F755508803A75550980AA
:100D16003575550A803075550B802B75550C802618
:100D260075550D802175550E801C75550F801775EC
:100D360055108012755511800D7555128008755520
:080D4600138003E4F555AF55DD
:010D4E002282
:10129500E4FEBF01027E40BD01034306108E80E5DA
:0A12A500A0541F44A0F5A053A01FA1
:0112AF00221C
:10139800E4FEC297EF1392A3EFC313FFD2970EBEDA
:0213A80008F04B
:0113AA002220
:08125E0075F00A84E5F04EFD75
:10126600C29300C29700D29300121398AF051213CF
:0412760098C2932265
:10102200E4FDC29300C29700D29300121398E4FF2A
:10103200C297EDC313FD30A303430580D2970FBFC0
:1010420008EEC29300C29700D29700C2A300D2A3B7
:0310520000AF05E7
:011055002278
:100E8200E4FD7F8E12126612051DFF75F00A84C4FE
:100E920054F0FEEF7F8412125E900001120536FFBD
:100EA20075F00A84C454F0FEEF7F8212125E900045
:100EB20002120536FF75F00A84C454F0FEEF75F095
:100EC2000A84E5F04EFD7F80121266E4FD7F8E02F9
:020ED2001266A6
:100F24007F85121022EFC4540F75F00AA4FEEF540B
:100F34000F2E1205637F83121022EFC4540F75F035
:100F44000AA4FEEF540F2E9000011205757F811242
:100F54001022EFC4540F75F00AA4FEEF540F2E9024
:050F640000020205750A
:0412B000D2A07F0544
:1012B400000000000000000000000000000000AE7C
:0612C400071FEE70EB2293
:0F13CC00D2A11212B0C2A17F051212B4C2A02288
:0C13DB00C2A11212B0D2A17F050212B410
:02111600AD0723
:10111800E4FCC2A07F051212B4ED30E704D2A1802E
:1011280002C2A17F051212B4D2A0ED25E0FD7F0511
:091138001212B40CBC08DBC2A0C9
:01114100228B
:10124100E4FC1212B0ED25E0FD30A103430501C21B
:0C125100A07F051212B40CBC08E8AF0529
:01125D00226E
:1011E200AB051213CC7FA01211161211F4AF031229
:0211F2001116D4
:1011F4001212B0A2A1E433FDC2A07F051212B4AF53
:0112040005E4
:0112050022C6
:10000300C2A0EF24FF92A17F051212B41212B0C254
:08001300A0D2A17F050212B486
:1010B800E4FD1213CC7F901211161211F47F431223
:1010C80011161211F41213CC7F911211161211F489
:0F10D800121241AD077F011200031213DBAF05A7
:0110E70022E6
:10137000AB071213CC7F901211161211F47F411299
:0513800011E90213DB7E
:100F69008B088A09890A1211E21213CC7FA1121186
:100F7900161211F4AF0C150CEF6024121241AB08D4
:100F8900050AE50AAA097002050914F9EF120563B1
:100F9900E50C6004E4FF80027F0112000380D502A2
:020FA90013DB58
:101056008B0D8A0E890F1211E2AF111511EF601F69
:10106600AB0D050FE50FAA0E7002050E14F9120559
:101076001DFF1211161211F47FC81212B480DA0283
:0210860013DB7A
:0412CA007F057E001E
:1012CE00EF1FAA0670011E4A600BE4FDEDC3940CDD
:0512DE0050EE0D80F749
:0112E30022E8
:02120600A90736
:10120800E4FBC294E91392941212CAD294E9C3136C
:0C121800F90BBB08ED7F057E000212CE32
:1012E400E4FBC294ECC313FCD29430940343048013
:0912F4001212CA0BBB08EBAF0497
:0112FD0022CE
:10116D00C200D2947F0C7E001212CEC2947F507EAC
:10117D00001212CED2947F0A7E001212CEA2949249
:06118D00001212CAA200CC
:011193002239
:1011940012116D7FCC1212067F4412120612116DC9
:1011A4007FCC1212067FBE1212061212E4A9071295
:0611B40012E4EFFEE9FF6A
:0111BA002212
:100ED4007F0AC290758AF4758CFFD28CAE071FEE20
:100EE400600E208D07A290B3929080F6C28D80ECA4
:100EF400C28CE4F58AF58CD28C309103308DFAC221
:100F04008C308D037FFF22AF8CEFAD8AFCEC120195
:0F0F1400C97B967A43798B783C12001E12020239
:010F230022AB
:10001E00EC4D6011E8497017ED33EC3304600DE4DC
:10002E00FCFFFEFD22E933E8330470F802026E1283
:10003E00023958046009E4CC248150062850090284
:10004E000278284003020275C0E0EB4A7044B98082
:10005E0006D0E0FB020264EF4E701CBD8008EBFF81
:10006E00EAFEE9FD80EBE98DF0A4FEE5F002010762
:10007E00E9CDF9EAFEEBFFEF89F0A4FCE5F0CE89BD
:10008E00F0A42EFFE435F0CD89F0A42DFEE435F07A
:10009E008067EF4E7005BD80D780C3EF8BF0A4ACA8
:1000AE00F0EE8BF0A42CFCE435F0F8EF8AF0A42CE3
:1000BE00E5F038FCE433CB8DF0A42CFCE5F03BF8F6
:1000CE00EE8AF0A42CFCE5F038F8E433CF89F0A4E6
:1000DE002CFCE5F038CF3400CE89F0A42FFFE5F0EC
:1000EE003EFEE433C98DF0A42EFEE5F039CD8AF044
:1000FE00A42FFFE5F03EFEE43DFD33D0E0FB5007BC
:10010E000BBB000F020278EC2CFCEF33FFEE33FE3C
:06011E00ED33FD0202506A
:10012400020278EC5D046005E85904700302026E73
:10013400120239580460F6EC4860F2EC7004FDFEDB
:10014400FF22C860DB2481C85009C39860025006AE
:100154000202759850CAF582E9294B4A7005AB82B0
:1001640002026475F0007C1A7880C3EF9BEE9AED6E
:1001740099400DC3EF9BFFEE9AFEED99FDE842F026
:10018400DC23ACF0D0E0FFD0E0FED0E0FDAB822079
:10019400E7101BEB60BAEC2CFCEF33FFEE33FEED03
:1001A40033FD020250E803F830E705C0F075F000B3
:1001B400EF2FFFEE33FEED33FD40B830E7C280AAE7
:1001C40075F020800E75F010800575F0087D007EB6
:1001D400007F003392D530D503120597EC334010DD
:1001E400EF33FFEE33FEED33FDEC33FCD5F0ED22BF
:0E01F400E5F0247EA2D513CC92E7CDCEFF22FB
:10020200EDD2E7CD33EC3392D524814006E4FFFEF4
:10021200FDFC22FCE4CFCECDCC24E0501174FF8053
:10022200EDC3CC13CCCD13CDCE13CECF13CF0470F0
:07023200F030D5DE02059754
:10061900E56C2458F8E6056C2278553007027858BD
:10062900E475F0011205B602051D2000EB7F2ED2FC
:10063900008018EF540F2490D43440D4FF30040BB9
:10064900EF24BFB41A0050032461FFE56D60021561
:100659006D0570E5707002056F30070D7855E4750A
:10066900F0011205B6EF0205630211BB7403D2074C
:100679008003E4C207F56C8B558A568957E4F56DFA
:10068900F56FF570E56D60077F2012065480F575EA
:100699006EFFC201C200C202C203C205C206C2087D
:1006A900120622FF700D3007057F00120665AF7034
:1006B900AE6F22B4255FC2D5C204120622FF24D030
:1006C900B40A00501A75F00A786D30D50508B6FFDE
:1006D9000106C6A426F620D5047002D20380D924C7
:1006E900CFB41A00EF5004C2E5D204020952D20174
:1006F90080C6D20080C0D20280BCD2D580BAD205D1
:1007090080B47F201206542002077401B56D0040A1
:10071900F1120619FF12065402068DD208D206807C
:1007290095120619FB120619FA120619F94A4B70A5
:100739000679497A0A7BFF20022EE56D602A7E0040
:100749008E8275830012053660060EEE656E70F0B6
:10075900C2D5EBC0E0EAC0E0E9C0E0EE1209B2D0D0
:10076900E0F9D0E0FAD0E0FB12051DFF60AAEBC06A
:10077900E0EAC0E0E9C0E0120654D0E02401F9D073
:10078900E03400FAD0E0FBE56E0460DCD56ED98078
:1007990087D20280A212099560F7E56E70010412F2
:1007A9000283A96E600DE56E600914F56E120A3CAC
:1007B900EF60F3EA30E702F404C3995077EAF425CD
:1007C9006E0430E701E404F56E800D12099560C1ED
:1007D900EA056E256E120283EA786BF630E701E4CA
:1007E900256E04D56E04200501141209B2E4C0E097
:1007F900120A3C786BE6601320E70714F612063CF0
:10080900802204F6D0E014C0E07F0012063CE56EB9
:100819006007120633156E800B300503120633D0BC
:10082900E002068DD0E00480C512099560A0E56E4E
:1008390004120283786BEAF6E56E20050260010472
:0508490024041209B2B5
:10084E0074FF04C0E0120A3C12063CE56E2005025D
:10085E006003120633D0E0B56EE87F451206467887
:10086E006BE67F2B30E7047F2DF404C0E0120654B4
:10087E00D0E075F00A84C0F012063DD0E012063DBD
:10088E0002068D791080027908C206C2088008D24D
:10089E00D5790A8004790AC2D5E56E047002F56E28
:1008AE00E4FAFDFEFF120619FC7B08200113120666
:1008BE0019FD7B1030000A120619FE120619FF7B75
:1008CE0020EC3382D592D55013C3E43000069FFF3F
:1008DE00E49EFEE42001039DFDE49CFCE4CBF8C203
:1008EE0001EC700CCFCECDCCE824F8F870F3801765
:1008FE00C3EF33FFEE33FEED33FDEC33FCEB33FB96
:10090E00994002FB0FD8E9EB300105F8D0E0C4485E
:10091E00B201C0E00AEC4D4E4F78207B0070C2EA67
:10092E00B56E0040BCC0E01209B4D0F0D0E020019A
:10093E0004C4C0E0C4B201C0F012063DD0F0D5F040
:10094E00EB02068D1205C6072A5308915806FB4C7A
:10095E0006F74208954F089D44089D490710430825
:10096E00A35507D446083245079E470A695006FF2D
:10097E002D07032E07262B0707230724200A522AAA
:10098E0006BF480000071EE56EB4FF03756E061223
:10099E000619FC120619FD120619FE120619FF7829
:1009AE00640202B2790AA2D5200314300509B910E7
:1009BE00020404B9080104A2D52006025001042045
:1009CE0002689202B56D005034C0E07F20300319EA
:1009DE007F30A20272067205500F120A0BC202C2BB
:1009EE0006C205C2087F30800F300503E9C0E01251
:1009FE000654300503D0E0F9D0E0B56DCC300517C4
:100A0E007F30B9100C1206547F583004077F78805F
:100A1E0003B908031206543002057F2D0206547FD7
:100A2E00202008F87F2B2006F322920280CF7F0031
:100A3E00B4070050052464F8E6FF22286E756C6C2E
:100A4E002900D2011206193001F8C201786D30D595
:100A5E000108F60206BF2D50434958120619240309
:100A6E00B405004001E4900A6493120645743A12EC
:0A0A7E000645D203756D04020891CD
:10023900E9D2E7C933E833F892D5EDD2E7CD33EC0B
:0702490033FC5002B2D52284
:10025000EC30E7100FBF000C0EBE00080DBD00040F
:100260000BEB6014A2D5EB13FCED92E7FD2274FFBB
:10027000FCFDFEFF22E480F8A2D574FF13FC7D8014
:03028000E480EF28
:10028300F920E72824F950037907E4F42402FB1842
:10029300DBFDE624FB5014E9600DE4F618E604F6F2
:0F02A300B40A08E4F6D9F57401F60A22C2D5228E
:1002B200ED33EC3392D5FA602AB4FF33EDC2E77B1B
:1002C200FF60067A0279D7E4227A0279E020D50427
:1002D2007A0279DB224E614E002B494E46002D49AF
:1002E2004E4600E47A08F608DAFC7B00740722E83E
:1002F200C0E0ECC0E0EDC0E0EEC0E0EFC0E0EA75C7
:10030200F010A4CAABF075F04DA42BFBE435F0FC61
:10031200EA2410FAEB34C5FBEC34D9FCEDC2E7FF5A
:1003220075F056A4F42411C5F0F434C58FF0A42A54
:10033200E5F03BE43CF620E7141204DDD0E0FFD008
:10034200E0FED0E0FDD0E0FC1201278014F404129C
:1003520004DDD0E0FFD0E0FED0E0FDD0E0FC1200F2
:100362001ED0E0F8E6FAEDD2E7CD33EC332482FB7F
:10037200E4C3CF33CFCE33CECD33CD33DBF37B07E4
:1003820075F00A846004F6081B0AE5F0F6088FF09F
:10039200740AA4FFACF08EF0740AA42CFEACF050E8
:1003A200010C8DF0740AA42CFDE435F0F608DBDEB6
:0303B200740722AB
:1003B50002026EE86480F8E933E83360110460F006
:1003C500ED33EC337009E8FCE9FDEAFEEBFF2204AE
:1003D50060DED3EB9FEA9EE99DE8C2E78CF0C2F7A9
:1003E50095F0400CE8CCF8E9CDF9EACEFAEBCFFB75
:1003F50012023985D0F05804700320D5B3E8047093
:10040500075002B2D502027892D5EC0460F7E4CC2D
:10041500C0E0C398F8603B94186008400DD0E0FB3D
:10042500020250E4FBFAC9FC8028E830E406E4C97E
:10043500FBE4CAFCE830E305E4C9CACBFCE8540791
:100445006010F8C3E913F9EA13FAEB13FBEC13FC9C
:10045500D8F130F52FC3E49CFCEF9BFFEE9AFEED3F
:1004650099FDD0E0FBEF4E4D4C701222DB030202EA
:1004750075EC2CFCEF33FFEE33FEED33FDED30E78D
:10048500EB020250EF2BFFEE3AFEED39FDD0E0FB1B
:1004950050130BBB0003020278ED13FDEE13FEEFC4
:0804A50013FFEC13FC020250EE
:1004AD003F8000004120000042C80000447A000057
:1004BD00461C400047C35000497424004B189680D9
:1004CD004CBEBC205A0E1BCA6753C21C749DC5AED0
:1004DD00FB60065407601C232312050BEB54386098
:1004ED00091204F712050612001EECF8EDF9EEFAEA
:1004FD00EFCB22EB12050680F1543803241C900437
:10050D00ADFE93FC0EEE93FD0EEE930ECE93FF22F9
:03000000020DF6F8
:0C0DF600787FE4F6D8FD758170020E3D98
:10051D00BB010689828A83E0225002E722BBFE02DC
:09052D00E32289828A83E493220F
:10053600BB010CE58229F582E5833AF583E022507A
:1005460006E92582F8E622BBFE06E92582F8E222C4
:0D055600E58229F582E5833AF583E49322DE
:10056300BB010689828A83F0225002F722BBFE0177
:02057300F32271
:10057500F8BB010DE58229F582E5833AF583E8F0BC
:10058500225006E92582C8F622BBFE05E92582C868
:02059500F22250
:0E059700C3E49FFFE49EFEE49DFDE49CFC2275
:1005A500EB9FF5F0EA9E42F0E99D42F0E89C45F0AC
:0105B5002223
:1005B600FAE6FB0808E6F925F0F618E6CA3AF62246
:1005C600D083D082F8E4937012740193700DA3A3C4
:1005D60093F8740193F5828883E4737402936860D8
:0605E600EFA3A3A380DFD8
:1005EC00D083D082F8E4937012740193700DA3A39E
:1005FC0093F8740193F5828883E473740293B5F0D5
:0D060C00067403936860E9A3A3A3A380D83C
:1011BB00EFB40A07740D1211C6740A309811A8996E
:1011CB00B8130CC2983098FDA899C298B811F63094
:0711DB0099FDC299F599226C
:100E0200021142E493A3F8E493A34003F68001F2B3
:100E120008DFF48029E493A3F85407240CC8C333F1
:100E2200C4540F4420C8834004F456800146F6DFC0
:100E3200E4800B0102040810204080900FABE47E96
:100E4200019360BCA3FF543F30E509541FFEE493B5
:100E5200A360010ECF54C025E060A840B8E493A37C
:100E6200FAE493A3F8E493A3C8C582C8CAC583CAA7
:100E7200F0A3C8C582C8CAC583CADFE9DEE780BE5F
:010FE8000008
:00000001FF
