:100B3900C0F9A4B0999282F88090FFBFC6898E8CC3
:020B490086889C
:070BD9007B007A0079212264
:100003007580FFE5A0541F44E0F5A053A01FAF295E
:10001300A8077401088002C333D8FCF580E5A05417
:100023001F44C0F5A053A01FE529652A600C742165
:100033002529F8E6900B3993800C74212529F8E6DD
:10004300900B3993547FF580E5A0541F44E0F5A04D
:1000530053A01F0529E529C394084003E4F5292289
:100A760075210A75220A75230A75240A75250A75D1
:100A8600260A75270A75280A752AFF752B00752C04
:020A9600032239
:040BA800D2A07F0553
:080BAC0000AE071FEE70F922F4
:0F0B7E00D2A1120BA8C2A17F05120BACC2A022FC
:0C0BB400C2A1120BA8D2A17F05020BAC5D
:100B0B00C2A0A20192A17F05120BAC120BA8C2A02E
:070B1B00D2A17F05020BAC23
:100B5D00120BA8A2A19201C2A07F05120BACA2019B
:010B6D002265
:020A2200AD071E
:100A2400E4FCC2A07F05120BACED30E704D2A18038
:100A340002C2A17F05120BACD2A0ED25E0FD7F051B
:090A4400120BAC0CBC08DBC2A0D3
:010A4D002286
:100ABA00E4FC120BA8ED25E0FD30A103430501C2B9
:0C0ACA00A07F05120BAC0CBC08E8AF05C7
:010AD60022FD
:0309BC000119001E
:070BE0007B007A00791A2264
:100AD700E5B0543FFF30C20543074080035307BFCB
:0A0AE70030C4044307802253077F48
:010AF10022E2
:080BC90075B00FC2C2C2C422C4
:080BD10075B0F0D2C2D2C422BB
:10067100E51A14602214604C147003020705240368
:100681006003020711120BD1120AD7EF64F0700355
:10069100020711751A0122120BD1120AD7EF249009
:1006A100601B24C0601224E0600924F0705F75199A
:1006B10004800D75190380087519028003751901ED
:1006C100751A0222120BC9120AD7EF24F9601C24F1
:1006D100FC601224FE600814701CE519148010E5FA
:1006E100192403800AE51924078004E519240BF570
:1006F1001B751A038003E4F51AE51BD3940F401010
:10070100751BFF22120BC9120AD7BF0F03E4F51A9A
:0107110022C5
:0D0B9B00751C06751D71751BFFE4F51A220F
:100B2200120B4B120A4E1203CD12082712091D1284
:070B3200079E12056A80EF27
:080BC0007F6C7E91DEFEDFFC7C
:010BC800220A
:100AF200120B7E7F90120A22120B5D7F43120A2292
:090B0200120B5D120BB4020BC0D2
:0209EF008F2D4A
:1009F100120B7E7F90120A22120B5DE52D4440FFFF
:100A0100120A22120B5D120B7E7F91120A22120B27
:100A11005D120ABA8F2ED201120B0B120BB4AF2E3C
:010A210022B2
:100B6E00538EBF53890FE4F58BF58DC28FC28E2243
:100A9800D290120AB3C290120AB3D290120AB3C209
:0B0AA80090120AB3D290120AB3C29061
:060AB30000007F24DFFEBD
:010AB900221A
:0E0B8D00C2AF120A98120AAC120A98D2AF2216
:10097900E4FDFC120B8DD28E309103308FFAC28EBA
:10098900308F0BC28FE4F58DF58BFE7FFF22AF8D83
:10099900EFAD8BFCC28FE4F58DF58BAE04AF05127C
:1009A90002117B967A43798B783C12006612024ACF
:0209B9007E00BE
:0109BB002219
:1009BF00011500011400011000010C0001120001CB
:1009CF00130002090000020E0000021600000118B9
:0F09DF003C010B0A010D00011100C1000108FFCE
:100B4B00438E0475D72075D6D1438E1043AF04D294
:020B5B00AF22C7
:100A4E00E4F580E5A0541F44A0F5A053A01F7580C7
:100A5E00FFE5A0541F4480F5A053A01F120A761282
:080A6E000B9B120AF2020B6E51
:030063000208A9E7
:1008A900C0E0C0F0C083C082C0D075D000C000C015
:1008B90001C002C003C004C005C006C007120BD99D
:1008C90090000A120381AAF0F91203C7E512C39432
:1008D900C850020512E50CC394965002050CE510A8
:1008E900C3946450020510E514C3943250020514F0
:1008F900E515C3940A50020515D007D006D005D0D6
:1009090004D003D002D001D000D0D0D082D083D07F
:04091900F0D0E03208
:10079E00E51264C8703DF512850E16850F17120905
:1007AE00798E0E8F0FAF0B7E00C3E5179FE5169E59
:1007BE004021AD187C00D3E5179DE5169C5014C35F
:1007CE00E50F9FE50E9E4009D3E50F9DE50E9C407B
:1007DE0002050DE50CB49629E4F50C7F031209EF22
:1007EE00AC07E4120216E4FBFA79FA7843120066BB
:1007FE00E4FBFA797F784312016F12024A8E098F59
:10080E000AE515B40A12E4F515120BE09000021277
:09081E000381AAF0F91203C722BC
:10091D00E510C394644054E4F510E51370085308D2
:10092D00FE430802800BE513B4010B5308FD430889
:10093D000143080480095308FB430801430802C31F
:10094D00E50F950BE50E94004010D3E50F9518E5D6
:10095D000E9400500553087F80036308808508803E
:0B096D00E5A0541F4480F5A053A01F1C
:01097800225C
:10056A00E511640160030205F2C3E5099400400E37
:10057A00E50A9464E50994005004E4F50B22C3E506
:10058A000A9464E5099400400EE50A94C8E50994C2
:10059A00005004750B0A22C3E50A94C8E5099400C1
:1005AA00400EE50A942CE50994015004750B1422B7
:1005BA00C3E50A942CE5099401400EE50A9490E5F6
:1005CA000994015004750B1E22C3E50A9490E509AB
:1005DA0094015003020670E50A94F4E50994014077
:1005EA0003020670750B2822E51164027078C3E5D0
:1005FA00099400400EE50A9464E5099400500475D4
:10060A00183222C3E50A9464E5099400400EE50A0B
:10061A0094C8E5099400500475183C22C3E50A946D
:10062A00C8E5099400400EE50A942CE509940150A6
:10063A000475184622C3E50A942CE5099401400E74
:10064A00E50A9490E5099401500475185022C3E50F
:10065A000A9490E5099401400DE50A94F4E5099499
:07066A0001500375185A222C
:10082700120BE09000011202CB24F8601814604B01
:1008370024FC602A04706A0513E513D3940240561A
:10084700E4F5138051E513B40104B2008008E51301
:10085700B40203E4F50D200003E4F5118038E51335
:10086700B40116200010740A250BF50BD394284009
:1008770008E4F50B8003751101801BE513B401161D
:10088700200010740A2518F518D3945A40087518D3
:10089700328003751102120BE090000174FF1203FE
:0208A7000A2223
:1003CD00120BD98B2D8A2E892FE514C3943250032D
:1003DD00020569E4F514E513600302049090000929
:1003ED0074FF12030A74111202F8AB2DAA2EA92F55
:1003FD00900001740A12030A900002740A12030A93
:10040D00900003740A12030A900004740A12030A7E
:10041D00D3E50F9463E50E9400400DAE0EAF0F7C47
:10042D00007D6412032C80027F0AAB2DAA2EA92F0A
:10043D00900005EF12030AD3E50F9409E50E940021
:10044D00401AAE0EAF0F7C007D6412032C7E007F30
:10045D000ACFCDCFCECCCE12032C80027F0AAB2D8E
:10046D00AA2EA92F900006EF12030AAE0EAF0F7C35
:10047D00007D0A12032CAB2DAA2EA92F900007ED9B
:10048D00020566E51364017071AB2DAA2EA92F909C
:10049D00000974FF12030A740F1202F8AB2DAA2E75
:1004AD00A92F900001200004740180027402120330
:1004BD000AAB2DAA2EA92F900002740A12030AE589
:1004CD000B75F00A8490000312030AE50B75F00A10
:1004DD0084900004E5F012030A900005740B1203DA
:1004ED000AE51875F00A8490000612030AE51875DE
:1004FD00F00A84900007E5F0805FAB2DAA2EA92F9E
:10050D0090000974FF12030A74101202F8AB2DAAA1
:10051D002EA92F900001740A12030A900002740A8A
:10052D0012030A900003740A12030A900004740A5D
:10053D0012030A900005740A12030A900006740A49
:10054D0012030AE50DD39409AB2DAA2EA92F900005
:0C055D00074004740B8002E50D12030A35
:01056900226F
:10006600EC4D6011E8497017ED33EC3304600DE494
:10007600FCFFFEFD22E933E8330470F80202B612F3
:10008600028158046009E4CC2481500628500902F4
:1000960002C02840030202BDC0E0EB4A7044B980AA
:1000A60006D0E0FB0202ACEF4E701CBD8008EBFFF1
:1000B600EAFEE9FD80EBE98DF0A4FEE5F002014FD2
:1000C600E9CDF9EAFEEBFFEF89F0A4FCE5F0CE8975
:1000D600F0A42EFFE435F0CD89F0A42DFEE435F032
:1000E6008067EF4E7005BD80D780C3EF8BF0A4AC60
:1000F600F0EE8BF0A42CFCE435F0F8EF8AF0A42C9B
:10010600E5F038FCE433CB8DF0A42CFCE5F03BF8AD
:10011600EE8AF0A42CFCE5F038F8E433CF89F0A49D
:100126002CFCE5F038CF3400CE89F0A42FFFE5F0A3
:100136003EFEE433C98DF0A42EFEE5F039CD8AF0FB
:10014600A42FFFE5F03EFEE43DFD33D0E0FB500773
:100156000BBB000F0202C0EC2CFCEF33FFEE33FEAC
:06016600ED33FD020298DA
:10016C000202C0EC5D046005E8590470030202B69B
:10017C00120281580460F6EC4860F2EC7004FDFE4B
:10018C00FF22C860DB2481C85009C3986002500666
:10019C000202BD9850CAF582E9294B4A7005AB8220
:1001AC000202AC75F0007C1A7880C3EF9BEE9AEDDE
:1001BC0099400DC3EF9BFFEE9AFEED99FDE842F0DE
:1001CC00DC23ACF0D0E0FFD0E0FED0E0FDAB822031
:1001DC00E7101BEB60BAEC2CFCEF33FFEE33FEEDBB
:1001EC0033FD020298E803F830E705C0F075F00023
:1001FC00EF2FFFEE33FEED33FD40B830E7C280AA9F
:10020C0075F020800E75F010800575F0087D007E6D
:10021C00007F003392D530D5031203B9EC33401074
:10022C00EF33FFEE33FEED33FDEC33FCD5F0ED2276
:0E023C00E5F0247EA2D513CC92E7CDCEFF22B2
:10024A00EDD2E7CD33EC3392D524814006E4FFFEAC
:10025A00FDFC22FCE4CFCECDCC24E0501174FF800B
:10026A00EDC3CC13CCCD13CDCE13CECF13CF0470A8
:07027A00F030D5DE0203B9EC
:10028100E9D2E7C933E833F892D5EDD2E7CD33ECC3
:0702910033FC5002B2D5223C
:10029800EC30E7100FBF000C0EBE00080DBD0004C7
:1002A8000BEB6014A2D5EB13FCED92E7FD2274FF73
:1002B800FCFDFEFF22E480F8A2D574FF13FC7D80CC
:0302C800E480EFE0
:03000000020712E2
:0C071200787FE4F6D8FD75812F020759AE
:1002CB00BB010CE58229F582E5833AF583E02250E8
:1002DB0006E92582F8E622BBFE06E92582F8E22232
:0D02EB00E58229F582E5833AF583E493224C
:1002F800BB010689828A83F0225002F722BBFE01E5
:02030800F322DE
:10030A00F8BB010DE58229F582E5833AF583E8F029
:10031A00225006E92582C8F622BBFE05E92582C8D5
:02032A00F222BD
:10032C00BC000BBE0029EF8DF084FFADF022E4CCB5
:10033C00F875F008EF2FFFEE33FEEC33FCEE9DEC7E
:10034C00984005FCEE9DFE0FD5F0E9E4CEFD22EDC4
:10035C00F8F5F0EE8420D21CFEADF075F008EF2F0E
:10036C00FFED33FD4007985006D5F0F222C398FDFF
:05037C000FD5F0EA229C
:10038100BB0110E58229F582E5833AF583E0F5F0BA
:10039100A3E0225009E92582F886F008E622BBFE97
:1003A1000AE92582F8E2F5F008E222E5832AF583DD
:0803B100E993F5F0A3E99322A2
:0E03B900C3E49FFFE49EFEE49DFDE49CFC2255
:0603C7008A838982E473C1
:10071E00020B22E493A3F8E493A34003F68001F2C4
:10072E0008DFF48029E493A3F85407240CC8C333DC
:10073E00C4540F4420C8834004F456800146F6DFAB
:10074E00E4800B01020408102040809009BCE47E76
:10075E00019360BCA3FF543F30E509541FFEE493A0
:10076E00A360010ECF54C025E060A840B8E493A367
:10077E00FAE493A3F8E493A3C8C582C8CAC583CA92
:10078E00F0A3C8C582C8CAC583CADFE9DEE780BE4A
:0109EE000008
:00000001FF
