:1012B7007580FFE5A0541F4480F5A053A01FE4F5F7
:0D12C70080E5A0541F44A0F5A053A01F22F5
:1013E70025303375202530337500257500252E32BD
:0213F70066008E
:10103F00014400093A000000000000000000082AE7
:10104F0000000000000000000143000124000447DD
:10105F0000000000012900023800000332163B3760
:10106F0001350002450000022200000425000000A7
:05107F00000236000034
:101393001212B71214081213C1D2AF7B007A00796C
:0913A30032120F54120FF480FB0A
:10110800E4F508E535C394C8402FE4F5357F41126E
:1011180012248F087F43121224754EFF754F1375E2
:1011280050E77551008F527553008508547B007A3B
:0911380000793A12074312132A50
:01114100228B
:1011CF00C3E52394F4E5229401401FE4F522F523AF
:1011DF00754EFF754F137550F1854551854652FB7E
:0B11EF007A00793A12074312132A22FB
:100FF400C3E53794F4E5369401403FE4F536F5371C
:101004001211FAAC06AD07E41201C9E4FBFA7980C7
:1010140078411201278F288E278D268C25754EFF47
:10102400754F137550F48F548E538D528C517B0031
:0B1034007A00793A12074312132A22B7
:10132A00E543C394C84013E4F543F54E754F007581
:0B133A00502AFB7A00793A120B562271
:10117600C3E53994F4E53894014021E4F538F539AE
:10118600120FA68F29754EFF754F137550F17551C5
:0D119600008F527B007A00793A1207432245
:03001B00020E08CA
:100E0800C0E0C0F0C083C082C0D075D000C000C0B0
:100E180001C002C003C004C005C006C007E54A24DB
:100E280001F54AE43549F549E43548F548E43547DC
:100E3800F54705430539E5397002053805350523B9
:100E4800E523700205220537E53770020536E54AC5
:100E58005401FFE4FEFDFCFBFAF9F8C312067370B7
:100E68000FE524045407F5247A00792AFD1210CAE4
:100E7800E47BE87A03F9F8AF4AAE49AD48AC4712CB
:100E880005D3AC00AD01AE02AF03E4FBFAF9F8C339
:100E98001206737010AF8CEFAD8AF545EDF5467507
:100EA8008C00758A00D007D006D005D004D003D0B6
:100EB80002D001D000D0D0D082D083D0F0D0E032A0
:060B56008B4B8A4C894D17
:100B5C00E4F551F552F551F552E551D394074003A4
:100B6C00020D03AB4BAA4CA94D8552827583001222
:100B7C0005361206940CC3000CC3200BBB300BCCF7
:100B8C00310BDD320BEE330BFF340C10350C2136F0
:100B9C000C32370C43380C53390C63410C83430C27
:100BAC00A3450CB3460C73620C936400000CD4ABDD
:100BBC004EAA4FA95085518275830074C0020CD186
:100BCC00AB4EAA4FA95085518275830074F9020C63
:100BDC00D1AB4EAA4FA95085518275830074A402E3
:100BEC000CD1AB4EAA4FA95085518275830074B0BD
:100BFC00020CD1AB4EAA4FA950855182758300745B
:100C0C0099020CD1AB4EAA4FA95085518275830025
:100C1C007492020CD1AB4EAA4FA9508551827583A8
:100C2C00007482020CD1AB4EAA4FA950855182752B
:100C3C00830074F8020CD1AB4EAA4FA95085518297
:100C4C007583007480807EAB4EAA4FA9508551826B
:100C5C007583007490806EAB4EAA4FA9508551825B
:100C6C007583007488805EAB4EAA4FA95085518263
:100C7C007583007483804EAB4EAA4FA95085518268
:100C8C0075830074C6803EAB4EAA4FA95085518225
:100C9C0075830074A1802EAB4EAA4FA9508551824A
:100CAC007583007486801EAB4EAA4FA95085518265
:100CBC00758300748E800EAB4EAA4FA9508551825D
:100CCC0075830074FF120575855182758300A3AB83
:100CDC004BAA4CA94D120536B42E15AB4EE550253A
:100CEC0051F9E4354FFA12051D547F120563055274
:070CFC0005510552020B65D2
:010D030022CD
:1010CA00E4F580E5A0541F44E0F5A053A01FA8054D
:1010DA007401088002C333D8FCF580E5A0541F448C
:1010EA00C0F5A053A01FAF058F8275830012053685
:0E10FA00F580E5A0541F44E0F5A053A01F228E
:1013C100438E4053890F758B20758DD1C28FD28E7C
:0313D100D2AB227A
:0E1408005389F0438905E4F58AF58CD28C22D5
:100D0400E4FEF509C2C4D2C2D2B5D2B4E5B0540FE0
:100D1400D2C4C2C2D2B5D2B4C4F8540FC868FFEE6C
:100D2400C454F048FEE5B0540FFDEF4DD2C4D2C216
:100D3400C2B5D2B4C4F8540FC868FFEEC454F04826
:100D4400FEE5B0540FFDEF4DD2C4D2C2D2B5C2B449
:100D5400C4F8540FC868FFEEC454F048FEE5B0541C
:100D64000FFDEF4DF4FFEEF4FEEF8EF01206BA0D18
:100D7400F300010DF800020DFD00040E0200080D41
:100D8400DF00100DE400200DE900400DEE00800DA1
:100D9400CB01000DD002000DD504000DDA08000DC2
:100DA400B710000DBC20000DC140000DC68000002E
:100DB400000E057509078049750906804475090503
:100DC400803F750904803A75090B803575090A80DE
:100DD40030750909802B750908802675090F802153
:100DE40075090E801C75090D801775090C80127524
:100DF4000913800D7509128008750911800375099E
:030E040010AF0923
:010E070022C8
:100FA6007F0AC290758AF4758CFFD28CAE071FEE4D
:100FB600600C308DFDA290B39290C28D80EEC28CF3
:100FC600E4F58AF58CD28C309103308DFAC28C30E0
:100FD6008D037FFF22AF8CEFAD8AFCEC1201C97B3B
:0D0FE600967A43798B783C12001E120202AD
:010FF30022DB
:1013D400E4FEC297EF1392A3EFC313FFD2970EBE9E
:0213E40008F00F
:0113E60022E4
:08130E0075F00A84E5F04EFDC4
:10131600C29300C29700D293001213D4AF051213E2
:04132600D4C2932278
:10114200E4FDC29300C29700D293001213D4E4FFCD
:10115200C297EDC313FD30A303430580D2970FBF9F
:1011620008EEC29300C29700D29700C2A300D2A396
:0311720000AF05C6
:011175002257
:100F5400E4FD7F8E12131612051DFF75F00A84C47A
:100F640054F0FEEF7F8412130E900001120536FF39
:100F740075F00A84C454F0FEEF7F8212130E9000C1
:100F840002120536FF75F00A84C454F0FEEF75F0C2
:100F94000A84E5F04EFD7F801213167D807F8E0259
:020FA400131622
:101085007F85121142EFC4540F75F00AA4FEEF5488
:101095000F2E1205637F83121142EFC4540F75F0B2
:1010A5000AA4FEEF540F2E9000011205757F8112E0
:1010B5001142EFC4540F75F00AA4FEEF540F2E90A1
:0510C5000002020575A8
:04134500D2A07F0AA9
:10134900000000000000000000000000000000AEE6
:06135900071FEE70EB22FD
:0F13F900D2A1121345C2A17F0A121349C2A0222A
:0C141600C2A1121345D2A17F0A021349A3
:0211A300AD0796
:1011A500E4FCC2A07F0A121349ED30E704D2A18006
:1011B50002C2A17F0A121349D2A0ED25E0FD7F0AE4
:0911C5001213490CBC08DBC2A0A6
:0111CE0022FE
:1012D400E4FC121345ED25E0FD30A103430501C2F2
:0C12E400A07F0A1213490CBC08E8AF05FB
:0112F00022DB
:0B12F1001211A31212FCAF031211A394
:1012FC00121345A2A1E433FDC2A07F0A121349AF19
:01130C0005DB
:01130D0022BD
:10000300C2A0EF24FF92A17F0A121349121345C223
:08001300A0D2A17F0A021349EB
:02122400AB0716
:10122600E4FD1213F97F901212F11213F97F911255
:1012360011A31212FC1212D4AD077F011200031281
:041246001416AF05C6
:01124A002281
:1013AC00AB071213F97F901211A31212FC7F41129A
:0513BC0012F1021416FD
:04135F007F057E0088
:10136300EF1FAA0670011E4A600BE4FDEDC3940C47
:0513730050EE0D80F7B3
:011378002252
:02129900A907A3
:10129B00E4FBC294E913929412135FD294E9C31343
:0C12AB00F90BBB08ED7F057E0002136309
:10137900E4FBC294ECC313FCD2943094034304807D
:0913890012135F0BBB08EBAF046B
:011392002238
:10124B00C200D2947F0C7E00121363C2947F507E37
:10125B0000121363D2947F0A7E00121363A294923E
:06126B000012135FA20057
:01127100225A
:1011FA00E4F9FF12124B7FCC1212997F4412129912
:10120A0012124B7FCC1212997FBE121299121379C5
:09121A00A907121379EFFEE9FFA8
:0112230022A8
:10001E00EC4D6011E8497017ED33EC3304600DE4DC
:10002E00FCFFFEFD22E933E8330470F802026E1283
:10003E00023958046009E4CC248150062850090284
:10004E000278284003020275C0E0EB4A7044B98082
:10005E0006D0E0FB020264EF4E701CBD8008EBFF81
:10006E00EAFEE9FD80EBE98DF0A4FEE5F002010762
:10007E00E9CDF9EAFEEBFFEF89F0A4FCE5F0CE89BD
:10008E00F0A42EFFE435F0CD89F0A42DFEE435F07A
:10009E008067EF4E7005BD80D780C3EF8BF0A4ACA8
:1000AE00F0EE8BF0A42CFCE435F0F8EF8AF0A42CE3
:1000BE00E5F038FCE433CB8DF0A42CFCE5F03BF8F6
:1000CE00EE8AF0A42CFCE5F038F8E433CF89F0A4E6
:1000DE002CFCE5F038CF3400CE89F0A42FFFE5F0EC
:1000EE003EFEE433C98DF0A42EFEE5F039CD8AF044
:1000FE00A42FFFE5F03EFEE43DFD33D0E0FB5007BC
:10010E000BBB000F020278EC2CFCEF33FFEE33FE3C
:06011E00ED33FD0202506A
:10012400020278EC5D046005E85904700302026E73
:10013400120239580460F6EC4860F2EC7004FDFEDB
:10014400FF22C860DB2481C85009C39860025006AE
:100154000202759850CAF582E9294B4A7005AB82B0
:1001640002026475F0007C1A7880C3EF9BEE9AED6E
:1001740099400DC3EF9BFFEE9AFEED99FDE842F026
:10018400DC23ACF0D0E0FFD0E0FED0E0FDAB822079
:10019400E7101BEB60BAEC2CFCEF33FFEE33FEED03
:1001A40033FD020250E803F830E705C0F075F000B3
:1001B400EF2FFFEE33FEED33FD40B830E7C280AAE7
:1001C40075F020800E75F010800575F0087D007EB6
:1001D400007F003392D530D503120665EC3340100E
:1001E400EF33FFEE33FEED33FDEC33FCD5F0ED22BF
:0E01F400E5F0247EA2D513CC92E7CDCEFF22FB
:10020200EDD2E7CD33EC3392D524814006E4FFFEF4
:10021200FDFC22FCE4CFCECDCC24E0501174FF8053
:10022200EDC3CC13CCCD13CDCE13CECF13CF0470F0
:07023200F030D5DE02066585
:1006E700E562244EF8E6056222784B300702784E21
:1006F700E475F00112068402051D2000EB7F2ED25F
:10070700008018EF540F2490D43440D4FF30040BEA
:10071700EF24BFB41A0050032461FFE5636002159C
:10072700630566E5667002056530070D784BE4756D
:10073700F001120684EF0205630212727403D207F6
:100747008003E4C207F5628B4B8A4C894DE4F5635D
:10075700F565F566E56360077F2012072280F5756A
:1007670064FFC201C200C202C203C205C206C208B8
:100777001206F0FF700D3007057F00120733AF66D2
:10078700AE6522B4255FC2D5C2041206F0FF24D09D
:10079700B40A00501A75F00A786330D50508B6FF19
:1007A7000106C6A426F620D5047002D20380D924F8
:1007B700CFB41A00EF5004C2E5D204020A20D201D6
:1007C70080C6D20080C0D20280BCD2D580BAD20502
:1007D70080B47F201207222002077401B56300400E
:1007E700F11206E7FF12072202075BD208D2068042
:1007F700951206E7FB1206E7FA1206E7F94A4B706D
:100807000679177A0B7BFF20022EE563602A7E00AC
:100817008E8275830012053660060EEE656470F0F1
:10082700C2D5EBC0E0EAC0E0E9C0E0EE120A80D032
:10083700E0F9D0E0FAD0E0FB12051DFF60AAEBC09B
:10084700E0EAC0E0E9C0E0120722D0E02401F9D0D5
:10085700E03400FAD0E0FBE5640460DCD564D980BD
:1008670087D20280A2120A6360F7E564700104125E
:100877000283A964600DE564600914F564120B0A2C
:10088700EF60F3EA30E702F404C3995077EAF425FE
:10089700640430E701E404F564800D120A6360C163
:1008A700EA05642564120283EA7861F630E701E419
:1008B700256404D5640420050114120A80E4C0E00D
:1008C700120B0A7861E6601320E70714F612070A8D
:1008D700802204F6D0E014C0E07F0012070AE56426
:1008E70060071207011564800B300503120701D05A
:1008F700E002075BD0E00480C5120A6360A0E564EC
:10090700041202837861EAF6E564200502600104B7
:050917002404120A8017
:10091C0074FF04C0E0120B0A12070AE564200502FA
:10092C006003120701D0E0B564E87F451207147824
:10093C0061E67F2B30E7047F2DF404C0E012072220
:10094C00D0E075F00A84C0F012070BD0E012070B50
:10095C0002075B791080027908C206C2088008D2AF
:10096C00D5790A8004790AC2D5E564047002F5646D
:10097C00E4FAFDFEFF1206E7FC7B082001131206C9
:10098C00E7FD7B1030000A1206E7FE1206E7FF7B3C
:10099C0020EC3382D592D55013C3E43000069FFF70
:1009AC00E49EFEE42001039DFDE49CFCE4CBF8C234
:1009BC0001EC700CCFCECDCCE824F8F870F3801796
:1009CC00C3EF33FFEE33FEED33FDEC33FCEB33FBC7
:1009DC00994002FB0FD8E9EB300105F8D0E0C44890
:1009EC00B201C0E00AEC4D4E4F78207B0070C2EA99
:1009FC00B5640040BCC0E0120A82D0F0D0E0200107
:100A0C0004C4C0E0C4B201C0F012070BD0F0D5F0A2
:100A1C00EB02075B12069407F853095F5807C94CA1
:100A2C0007C54209634F096B44096B4907DE43094B
:100A3C00715508A246090045086C470B375007CD85
:100A4C002D07D12E07F42B07D52307F2200B202AD4
:100A5C00078D48000007ECE564B4FF0375640612CB
:100A6C0006E7FC1206E7FD1206E7FE1206E7FF7822
:100A7C005A0202B2790AA2D5200314300509B91022
:100A8C00020404B9080104A2D52006025001042076
:100A9C0002689202B563005034C0E07F2030031925
:100AAC007F30A20272067205500F120AD9C202C21E
:100ABC0006C205C2087F30800F300503E9C0E01282
:100ACC000722300503D0E0F9D0E0B563CC30051730
:100ADC007F30B9100C1207227F583004077F7880C2
:100AEC0003B908031207223002057F2D0207227F6B
:100AFC00202008F87F2B2006F322920280CF7F0063
:100B0C00B407005005245AF8E6FF22286E756C6C69
:100B1C002900D2011206E73001F8C201786330D502
:100B2C000108F602078D2D504349581206E724039D
:100B3C00B405004001E4900B3293120713743A127F
:0A0B4C000713D20375630402095F6A
:10023900E9D2E7C933E833F892D5EDD2E7CD33EC0B
:0702490033FC5002B2D52284
:10025000EC30E7100FBF000C0EBE00080DBD00040F
:100260000BEB6014A2D5EB13FCED92E7FD2274FFBB
:10027000FCFDFEFF22E480F8A2D574FF13FC7D8014
:03028000E480EF28
:10028300F920E72824F950037907E4F42402FB1842
:10029300DBFDE624FB5014E9600DE4F618E604F6F2
:0F02A300B40A08E4F6D9F57401F60A22C2D5228E
:1002B200ED33EC3392D5FA602AB4FF33EDC2E77B1B
:1002C200FF60067A0279D7E4227A0279E020D50427
:1002D2007A0279DB224E614E002B494E46002D49AF
:1002E2004E4600E47A08F608DAFC7B00740722E83E
:1002F200C0E0ECC0E0EDC0E0EEC0E0EFC0E0EA75C7
:10030200F010A4CAABF075F04DA42BFBE435F0FC61
:10031200EA2410FAEB34C5FBEC34D9FCEDC2E7FF5A
:1003220075F056A4F42411C5F0F434C58FF0A42A54
:10033200E5F03BE43CF620E7141204DDD0E0FFD008
:10034200E0FED0E0FDD0E0FC1201278014F404129C
:1003520004DDD0E0FFD0E0FED0E0FDD0E0FC1200F2
:100362001ED0E0F8E6FAEDD2E7CD33EC332482FB7F
:10037200E4C3CF33CFCE33CECD33CD33DBF37B07E4
:1003820075F00A846004F6081B0AE5F0F6088FF09F
:10039200740AA4FFACF08EF0740AA42CFEACF050E8
:1003A200010C8DF0740AA42CFDE435F0F608DBDEB6
:0303B200740722AB
:1003B50002026EE86480F8E933E83360110460F006
:1003C500ED33EC337009E8FCE9FDEAFEEBFF2204AE
:1003D50060DED3EB9FEA9EE99DE8C2E78CF0C2F7A9
:1003E50095F0400CE8CCF8E9CDF9EACEFAEBCFFB75
:1003F50012023985D0F05804700320D5B3E8047093
:10040500075002B2D502027892D5EC0460F7E4CC2D
:10041500C0E0C398F8603B94186008400DD0E0FB3D
:10042500020250E4FBFAC9FC8028E830E406E4C97E
:10043500FBE4CAFCE830E305E4C9CACBFCE8540791
:100445006010F8C3E913F9EA13FAEB13FBEC13FC9C
:10045500D8F130F52FC3E49CFCEF9BFFEE9AFEED3F
:1004650099FDD0E0FBEF4E4D4C701222DB030202EA
:1004750075EC2CFCEF33FFEE33FEED33FDED30E78D
:10048500EB020250EF2BFFEE3AFEED39FDD0E0FB1B
:1004950050130BBB0003020278ED13FDEE13FEEFC4
:0804A50013FFEC13FC020250EE
:1004AD003F8000004120000042C80000447A000057
:1004BD00461C400047C35000497424004B189680D9
:1004CD004CBEBC205A0E1BCA6753C21C749DC5AED0
:1004DD00FB60065407601C232312050BEB54386098
:1004ED00091204F712050612001EECF8EDF9EEFAEA
:1004FD00EFCB22EB12050680F1543803241C900437
:10050D00ADFE93FC0EEE93FD0EEE930ECE93FF22F9
:03000000020EC825
:0C0EC800787FE4F6D8FD758166020F0FFC
:10051D00BB010689828A83E0225002E722BBFE02DC
:09052D00E32289828A83E493220F
:10053600BB010CE58229F582E5833AF583E022507A
:1005460006E92582F8E622BBFE06E92582F8E222C4
:0D055600E58229F582E5833AF583E49322DE
:10056300BB010689828A83F0225002F722BBFE0177
:02057300F32271
:10057500F8BB010DE58229F582E5833AF583E8F0BC
:10058500225006E92582C8F622BBFE05E92582C868
:02059500F22250
:1005970075F008758200EF2FFFEE33FECD33CDCC1B
:1005A70033CCC58233C5829BED9AEC99E58298409E
:1005B7000CF582EE9BFEED9AFDEC99FC0FD5F0D67B
:1005C700E4CEFBE4CDFAE4CCF9A88222B800C1B9A5
:1005D7000059BA002DEC8BF084CFCECDFCE5F0CBE3
:1005E700F97818EF2FFFEE33FEED33FDEC33FCEB1C
:1005F70033FB10D703994004EB99FB0FD8E5E4F9D7
:10060700FA227818EF2FFFEE33FEED33FDEC33FCC3
:10061700C933C910D7059BE99A4007EC9BFCE99AB7
:10062700F90FD8E0E4C9FAE4CCFB2275F010EF2FFC
:10063700FFEE33FEED33FDCC33CCC833C810D707FC
:100647009BEC9AE899400AED9BFDEC9AFCE899F837
:0E0657000FD5F0DAE4CDFBE4CCFAE4C8F922CA
:0E066500C3E49FFFE49EFEE49DFDE49CFC22A6
:10067300EB9FF5F0EA9E42F0E99D42F0E89C45F0DD
:010683002254
:10068400FAE6FB0808E6F925F0F618E6CA3AF62277
:10069400D083D082F8E4937012740193700DA3A3F5
:1006A40093F8740193F5828883E473740293686009
:0606B400EFA3A3A380DF09
:1006BA00D083D082F8E4937012740193700DA3A3CF
:1006CA0093F8740193F5828883E473740293B5F006
:0D06DA00067403936860E9A3A3A3A380D86E
:10127200EFB40A07740D12127D740A309811A899FE
:10128200B8130CC2983098FDA899C298B811F630DC
:0712920099FDC299F59922B4
:100ED400021393E493A3F8E493A34003F68001F28E
:100EE40008DFF48029E493A3F85407240CC8C3331F
:100EF400C4540F4420C8834004F456800146F6DFEE
:100F0400E4800B010204081020408090103FE47E2E
:100F1400019360BCA3FF543F30E509541FFEE493E2
:100F2400A360010ECF54C025E060A840B8E493A3A9
:100F3400FAE493A3F8E493A3C8C582C8CAC583CAD4
:100F4400F0A3C8C582C8CAC583CADFE9DEE780BE8C
:01108400006B
:00000001FF
